{
  "contractName": "VotingFactory",
  "abi": [
    {
      "inputs": [],
      "stateMutability": "nonpayable",
      "type": "constructor"
    },
    {
      "inputs": [],
      "name": "compaignsNum",
      "outputs": [
        {
          "internalType": "uint256",
          "name": "",
          "type": "uint256"
        }
      ],
      "stateMutability": "view",
      "type": "function"
    },
    {
      "inputs": [],
      "name": "owner",
      "outputs": [
        {
          "internalType": "address",
          "name": "",
          "type": "address"
        }
      ],
      "stateMutability": "view",
      "type": "function"
    },
    {
      "inputs": [
        {
          "internalType": "string",
          "name": "_name",
          "type": "string"
        },
        {
          "internalType": "uint256",
          "name": "targetVotes",
          "type": "uint256"
        }
      ],
      "name": "createNewCampaign",
      "outputs": [],
      "stateMutability": "nonpayable",
      "type": "function"
    },
    {
      "inputs": [
        {
          "internalType": "uint256",
          "name": "id",
          "type": "uint256"
        }
      ],
      "name": "getCampaign",
      "outputs": [
        {
          "internalType": "uint256",
          "name": "",
          "type": "uint256"
        },
        {
          "internalType": "address",
          "name": "",
          "type": "address"
        },
        {
          "internalType": "string",
          "name": "",
          "type": "string"
        },
        {
          "internalType": "uint256",
          "name": "",
          "type": "uint256"
        }
      ],
      "stateMutability": "view",
      "type": "function"
    }
  ],
  "bytecode": "0x608060405234801561001057600080fd5b50336000806101000a81548173ffffffffffffffffffffffffffffffffffffffff021916908373ffffffffffffffffffffffffffffffffffffffff160217905550611ce0806100606000396000f3fe608060405234801561001057600080fd5b506004361061004c5760003560e01c806347347b06146100515780635511da111461006f5780635598f8cc146101345780638da5cb5b14610206575b600080fd5b61005961023a565b6040518082815260200191505060405180910390f35b6101326004803603604081101561008557600080fd5b81019080803590602001906401000000008111156100a257600080fd5b8201836020820111156100b457600080fd5b803590602001918460018302840111640100000000831117156100d657600080fd5b91908080601f016020809104026020016040519081016040528093929190818152602001838380828437600081840152601f19601f82011690508083019250505050505050919291929080359060200190929190505050610240565b005b6101606004803603602081101561014a57600080fd5b81019080803590602001909291905050506103fc565b604051808581526020018473ffffffffffffffffffffffffffffffffffffffff16815260200180602001838152602001828103825284818151815260200191508051906020019080838360005b838110156101c85780820151818401526020810190506101ad565b50505050905090810190601f1680156101f55780820380516001836020036101000a031916815260200191505b509550505050505060405180910390f35b61020e610513565b604051808273ffffffffffffffffffffffffffffffffffffffff16815260200191505060405180910390f35b60015481565b60008054906101000a900473ffffffffffffffffffffffffffffffffffffffff1673ffffffffffffffffffffffffffffffffffffffff163373ffffffffffffffffffffffffffffffffffffffff161461029857600080fd5b6102a0610537565b8160008054906101000a900473ffffffffffffffffffffffffffffffffffffffff166040516102ce9061056e565b808381526020018273ffffffffffffffffffffffffffffffffffffffff16815260200192505050604051809103906000f080158015610311573d6000803e3d6000fd5b50816000019073ffffffffffffffffffffffffffffffffffffffff16908173ffffffffffffffffffffffffffffffffffffffff16815250508281602001819052504281604001818152505080600260006001805401815260200190815260200160002060008201518160000160006101000a81548173ffffffffffffffffffffffffffffffffffffffff021916908373ffffffffffffffffffffffffffffffffffffffff16021790555060208201518160010190805190602001906103d792919061057b565b5060408201518160020155905050600160008154809291906001019190505550505050565b60008060606000846002600087815260200190815260200160002060000160009054906101000a900473ffffffffffffffffffffffffffffffffffffffff16600260008881526020019081526020016000206001016002600089815260200190815260200160002060020154818054600181600116156101000203166002900480601f0160208091040260200160405190810160405280929190818152602001828054600181600116156101000203166002900480156104fd5780601f106104d2576101008083540402835291602001916104fd565b820191906000526020600020905b8154815290600101906020018083116104e057829003601f168201915b5050505050915093509350935093509193509193565b60008054906101000a900473ffffffffffffffffffffffffffffffffffffffff1681565b6040518060600160405280600073ffffffffffffffffffffffffffffffffffffffff16815260200160608152602001600081525090565b6116928061061983390190565b828054600181600116156101000203166002900490600052602060002090601f016020900481019282601f106105bc57805160ff19168380011785556105ea565b828001600101855582156105ea579182015b828111156105e95782518255916020019190600101906105ce565b5b5090506105f791906105fb565b5090565b5b808211156106145760008160009055506001016105fc565b509056fe608060405234801561001057600080fd5b506040516116923803806116928339818101604052604081101561003357600080fd5b8101908080519060200190929190805190602001909291905050508160008190555080600360006101000a81548173ffffffffffffffffffffffffffffffffffffffff021916908373ffffffffffffffffffffffffffffffffffffffff16021790555050506115eb806100a76000396000f3fe608060405234801561001057600080fd5b50600436106100cf5760003560e01c80636669e3321161008c578063ba7faf4911610066578063ba7faf4914610579578063d4f50f9814610599578063e088733514610615578063fab2f86b14610633576100cf565b80636669e3321461050957806373c93316146105275780638da5cb5b14610545576100cf565b80630121b93f146100d45780630c3573e8146101025780631e620cd41461025e5780631ec6b60a1461028c57806326541b561461029657806335b8e820146103e8575b600080fd5b610100600480360360208110156100ea57600080fd5b810190808035906020019092919050505061063d565b005b61025c6004803603606081101561011857600080fd5b81019080803590602001909291908035906020019064010000000081111561013f57600080fd5b82018360208201111561015157600080fd5b8035906020019184600183028401116401000000008311171561017357600080fd5b91908080601f016020809104026020016040519081016040528093929190818152602001838380828437600081840152601f19601f820116905080830192505050505050509192919290803590602001906401000000008111156101d657600080fd5b8201836020820111156101e857600080fd5b8035906020019184600183028401116401000000008311171561020a57600080fd5b91908080601f016020809104026020016040519081016040528093929190818152602001838380828437600081840152601f19601f820116905080830192505050505050509192919290505050610920565b005b61028a6004803603602081101561027457600080fd5b8101908080359060200190929190505050610afe565b005b610294610ce9565b005b6103e6600480360360408110156102ac57600080fd5b81019080803590602001906401000000008111156102c957600080fd5b8201836020820111156102db57600080fd5b803590602001918460018302840111640100000000831117156102fd57600080fd5b91908080601f016020809104026020016040519081016040528093929190818152602001838380828437600081840152601f19601f8201169050808301925050505050505091929192908035906020019064010000000081111561036057600080fd5b82018360208201111561037257600080fd5b8035906020019184600183028401116401000000008311171561039457600080fd5b91908080601f016020809104026020016040519081016040528093929190818152602001838380828437600081840152601f19601f820116905080830192505050505050509192919290505050610e4c565b005b610414600480360360208110156103fe57600080fd5b8101908080359060200190929190505050610ff9565b604051808581526020018060200180602001848152602001838103835286818151815260200191508051906020019080838360005b83811015610464578082015181840152602081019050610449565b50505050905090810190601f1680156104915780820380516001836020036101000a031916815260200191505b50838103825285818151815260200191508051906020019080838360005b838110156104ca5780820151818401526020810190506104af565b50505050905090810190601f1680156104f75780820380516001836020036101000a031916815260200191505b50965050505050505060405180910390f35b610511611223565b6040518082815260200191505060405180910390f35b61052f611229565b6040518082815260200191505060405180910390f35b61054d61122f565b604051808273ffffffffffffffffffffffffffffffffffffffff16815260200191505060405180910390f35b610581611255565b60405180821515815260200191505060405180910390f35b6105db600480360360208110156105af57600080fd5b81019080803573ffffffffffffffffffffffffffffffffffffffff169060200190929190505050611268565b604051808473ffffffffffffffffffffffffffffffffffffffff168152602001838152602001828152602001935050505060405180910390f35b61061d611301565b6040518082815260200191505060405180910390f35b61063b611307565b005b600360149054906101000a900460ff166106bf576040517f08c379a00000000000000000000000000000000000000000000000000000000081526004018080602001828103825260178152602001807f766f7465206973206e6f7420696e2070726f677265737300000000000000000081525060200191505060405180910390fd5b6001546000541161071b576040517f08c379a00000000000000000000000000000000000000000000000000000000081526004018080602001828103825260238152602001806115936023913960400191505060405180910390fd5b336000600560008373ffffffffffffffffffffffffffffffffffffffff1673ffffffffffffffffffffffffffffffffffffffff16815260200190815260200160002060000154146107d4576040517f08c379a00000000000000000000000000000000000000000000000000000000081526004018080602001828103825260148152602001807f796f75206861766520766f7465206265666f726500000000000000000000000081525060200191505060405180910390fd5b816004600082815260200190815260200160002060000160009054906101000a900460ff1661086b576040517f08c379a00000000000000000000000000000000000000000000000000000000081526004018080602001828103825260188152602001807f43616e64696461746520646f6573206e6f74206578697374000000000000000081525060200191505060405180910390fd5b6004600084815260200190815260200160002060030160008154809291906001019190505550610899611469565b60018054018160000181815250504281602001818152505080600560003373ffffffffffffffffffffffffffffffffffffffff1673ffffffffffffffffffffffffffffffffffffffff168152602001908152602001600020600082015181600001556020820151816001015590505060016000815480929190600101919050555050505050565b600360009054906101000a900473ffffffffffffffffffffffffffffffffffffffff1673ffffffffffffffffffffffffffffffffffffffff163373ffffffffffffffffffffffffffffffffffffffff16146109e3576040517f08c379a000000000000000000000000000000000000000000000000000000000815260040180806020018281038252600c8152602001807f6973206e6f74206f776e6572000000000000000000000000000000000000000081525060200191505060405180910390fd5b600360149054906101000a900460ff16158015610a0257506000600154145b610a0b57600080fd5b826004600082815260200190815260200160002060000160009054906101000a900460ff16610aa2576040517f08c379a00000000000000000000000000000000000000000000000000000000081526004018080602001828103825260188152602001807f43616e64696461746520646f6573206e6f74206578697374000000000000000081525060200191505060405180910390fd5b82600460008681526020019081526020016000206001019080519060200190610acc929190611483565b5081600460008681526020019081526020016000206002019080519060200190610af7929190611483565b5050505050565b600360009054906101000a900473ffffffffffffffffffffffffffffffffffffffff1673ffffffffffffffffffffffffffffffffffffffff163373ffffffffffffffffffffffffffffffffffffffff1614610bc1576040517f08c379a000000000000000000000000000000000000000000000000000000000815260040180806020018281038252600c8152602001807f6973206e6f74206f776e6572000000000000000000000000000000000000000081525060200191505060405180910390fd5b600360149054906101000a900460ff16158015610be057506000600154145b610be957600080fd5b806004600082815260200190815260200160002060000160009054906101000a900460ff16610c80576040517f08c379a00000000000000000000000000000000000000000000000000000000081526004018080602001828103825260188152602001807f43616e64696461746520646f6573206e6f74206578697374000000000000000081525060200191505060405180910390fd5b60046000838152602001908152602001600020600080820160006101000a81549060ff0219169055600182016000610cb89190611503565b600282016000610cc89190611503565b60038201600090555050600260008154809291906001900391905055505050565b600360009054906101000a900473ffffffffffffffffffffffffffffffffffffffff1673ffffffffffffffffffffffffffffffffffffffff163373ffffffffffffffffffffffffffffffffffffffff1614610dac576040517f08c379a000000000000000000000000000000000000000000000000000000000815260040180806020018281038252600c8152602001807f6973206e6f74206f776e6572000000000000000000000000000000000000000081525060200191505060405180910390fd5b600360149054906101000a900460ff1615610e2f576040517f08c379a00000000000000000000000000000000000000000000000000000000081526004018080602001828103825260138152602001807f766f746520697320696e2070726f67726573730000000000000000000000000081525060200191505060405180910390fd5b6001600360146101000a81548160ff021916908315150217905550565b600360009054906101000a900473ffffffffffffffffffffffffffffffffffffffff1673ffffffffffffffffffffffffffffffffffffffff163373ffffffffffffffffffffffffffffffffffffffff1614610f0f576040517f08c379a000000000000000000000000000000000000000000000000000000000815260040180806020018281038252600c8152602001807f6973206e6f74206f776e6572000000000000000000000000000000000000000081525060200191505060405180910390fd5b600360149054906101000a900460ff16158015610f2e57506000600154145b610f3757600080fd5b610f3f61154b565b60018160000190151590811515815250508281602001819052508181604001819052508060046000600160025401815260200190815260200160002060008201518160000160006101000a81548160ff0219169083151502179055506020820151816001019080519060200190610fb7929190611483565b506040820151816002019080519060200190610fd4929190611483565b5060608201518160030155905050600260008154809291906001019190505550505050565b60006060806000846004600082815260200190815260200160002060000160009054906101000a900460ff16611097576040517f08c379a00000000000000000000000000000000000000000000000000000000081526004018080602001828103825260188152602001807f43616e64696461746520646f6573206e6f74206578697374000000000000000081525060200191505060405180910390fd5b856004600088815260200190815260200160002060010160046000898152602001908152602001600020600201600460008a815260200190815260200160002060030154828054600181600116156101000203166002900480601f0160208091040260200160405190810160405280929190818152602001828054600181600116156101000203166002900480156111705780601f1061114557610100808354040283529160200191611170565b820191906000526020600020905b81548152906001019060200180831161115357829003601f168201915b50505050509250818054600181600116156101000203166002900480601f01602080910402602001604051908101604052809291908181526020018280546001816001161561010002031660029004801561120c5780601f106111e15761010080835404028352916020019161120c565b820191906000526020600020905b8154815290600101906020018083116111ef57829003601f168201915b505050505091509450945094509450509193509193565b60005481565b60015481565b600360009054906101000a900473ffffffffffffffffffffffffffffffffffffffff1681565b600360149054906101000a900460ff1681565b600080600083600560008673ffffffffffffffffffffffffffffffffffffffff1673ffffffffffffffffffffffffffffffffffffffff16815260200190815260200160002060000154600560008773ffffffffffffffffffffffffffffffffffffffff1673ffffffffffffffffffffffffffffffffffffffff168152602001908152602001600020600101549250925092509193909250565b60025481565b600360009054906101000a900473ffffffffffffffffffffffffffffffffffffffff1673ffffffffffffffffffffffffffffffffffffffff163373ffffffffffffffffffffffffffffffffffffffff16146113ca576040517f08c379a000000000000000000000000000000000000000000000000000000000815260040180806020018281038252600c8152602001807f6973206e6f74206f776e6572000000000000000000000000000000000000000081525060200191505060405180910390fd5b600360149054906101000a900460ff1661144c576040517f08c379a00000000000000000000000000000000000000000000000000000000081526004018080602001828103825260178152602001807f766f7465206973206e6f7420696e2070726f677265737300000000000000000081525060200191505060405180910390fd5b6000600360146101000a81548160ff021916908315150217905550565b604051806040016040528060008152602001600081525090565b828054600181600116156101000203166002900490600052602060002090601f016020900481019282601f106114c457805160ff19168380011785556114f2565b828001600101855582156114f2579182015b828111156114f15782518255916020019190600101906114d6565b5b5090506114ff9190611575565b5090565b50805460018160011615610100020316600290046000825580601f106115295750611548565b601f0160209004906000526020600020908101906115479190611575565b5b50565b60405180608001604052806000151581526020016060815260200160608152602001600081525090565b5b8082111561158e576000816000905550600101611576565b509056fe54617267657420546f74616c20566f74657320686173206265656e2072656163686564a2646970667358221220979e36201e34b1aa72303bfa26396deec90c797f1896aeef655d91ddcf69c02064736f6c63430007000033a264697066735822122047d563c71e4c1e42c60a58f7e01f42bc463b235b590a69ef991f3b8072b2a20264736f6c63430007000033",
  "immutableReferences": {},
  "source": "// SPDX-License-Identifier: UNLICENSED\npragma solidity ^0.7.0;\n\nimport \"./Voting.sol\";\n\ncontract VotingFactory {\n    struct Info { \n        address contractAddress;\n\t\tstring name;\n    \tuint timestamp;\n\t}\n    address public owner;\n    uint public compaignsNum;\n    mapping(uint => Info) indexToCampaign;\n    \n    constructor(){\n        owner = msg.sender;\n    }\n    \n    modifier isOwner(){\n        require(msg.sender == owner);\n        _;\n    }\n    \n    function createNewCampaign(string memory _name, uint targetVotes) external isOwner() {\n        Info memory newVoteContract;\n\t\tnewVoteContract.contractAddress = address(new Voting(targetVotes, owner));\n        newVoteContract.name = _name;\n        newVoteContract.timestamp= block.timestamp;\n        indexToCampaign[compaignsNum + 1] = newVoteContract;\n        compaignsNum++;\n    }\n    \n    function getCampaign(uint id) external view returns(uint, address, string memory, uint) {\n        return (id, indexToCampaign[id].contractAddress, indexToCampaign[id].name, indexToCampaign[id].timestamp);\n    }\n}",
  "sourcePath": "/home/youssef/voting-smartcontracts/contracts/VotingFactory.sol",
  "compiler": {
    "name": "solc",
    "version": "0.7.0+commit.9e61f92b.Emscripten.clang"
  },
  "schemaVersion": "3.2.0",
  "updatedAt": "2020-08-24T14:32:30.552Z",
  "devdoc": {
    "kind": "dev",
    "methods": {},
    "version": 1
  },
  "userdoc": {
    "kind": "user",
    "methods": {},
    "version": 1
  }
}