{
  "contractName": "Voting",
  "abi": [
    {
      "inputs": [
        {
          "internalType": "address",
          "name": "_owner",
          "type": "address"
        },
        {
          "internalType": "uint256",
          "name": "_endTime",
          "type": "uint256"
        },
        {
          "internalType": "bool",
          "name": "_thresholdVote",
          "type": "bool"
        }
      ],
      "stateMutability": "nonpayable",
      "type": "constructor"
    },
    {
      "inputs": [],
      "name": "abstainersNum",
      "outputs": [
        {
          "internalType": "uint256",
          "name": "",
          "type": "uint256"
        }
      ],
      "stateMutability": "view",
      "type": "function"
    },
    {
      "inputs": [],
      "name": "endTime",
      "outputs": [
        {
          "internalType": "uint256",
          "name": "",
          "type": "uint256"
        }
      ],
      "stateMutability": "view",
      "type": "function"
    },
    {
      "inputs": [],
      "name": "owner",
      "outputs": [
        {
          "internalType": "address",
          "name": "",
          "type": "address"
        }
      ],
      "stateMutability": "view",
      "type": "function"
    },
    {
      "inputs": [],
      "name": "stage",
      "outputs": [
        {
          "internalType": "enum Voting.Stage",
          "name": "",
          "type": "uint8"
        }
      ],
      "stateMutability": "view",
      "type": "function"
    },
    {
      "inputs": [],
      "name": "thresholdVote",
      "outputs": [
        {
          "internalType": "bool",
          "name": "",
          "type": "bool"
        }
      ],
      "stateMutability": "view",
      "type": "function"
    },
    {
      "inputs": [
        {
          "internalType": "address",
          "name": "",
          "type": "address"
        }
      ],
      "name": "voterToDetails",
      "outputs": [
        {
          "internalType": "bool",
          "name": "exists",
          "type": "bool"
        },
        {
          "internalType": "bool",
          "name": "abstains",
          "type": "bool"
        },
        {
          "internalType": "bool",
          "name": "voted",
          "type": "bool"
        },
        {
          "internalType": "uint256",
          "name": "timestamp",
          "type": "uint256"
        }
      ],
      "stateMutability": "view",
      "type": "function"
    },
    {
      "inputs": [],
      "name": "votersNum",
      "outputs": [
        {
          "internalType": "uint256",
          "name": "",
          "type": "uint256"
        }
      ],
      "stateMutability": "view",
      "type": "function"
    },
    {
      "inputs": [],
      "name": "votesNum",
      "outputs": [
        {
          "internalType": "uint256",
          "name": "",
          "type": "uint256"
        }
      ],
      "stateMutability": "view",
      "type": "function"
    },
    {
      "inputs": [
        {
          "internalType": "string",
          "name": "_name",
          "type": "string"
        },
        {
          "internalType": "string",
          "name": "_desc",
          "type": "string"
        }
      ],
      "name": "addCandidate",
      "outputs": [],
      "stateMutability": "nonpayable",
      "type": "function"
    },
    {
      "inputs": [
        {
          "internalType": "address",
          "name": "voter",
          "type": "address"
        }
      ],
      "name": "addVoter",
      "outputs": [],
      "stateMutability": "nonpayable",
      "type": "function"
    },
    {
      "inputs": [
        {
          "internalType": "uint256",
          "name": "id",
          "type": "uint256"
        },
        {
          "internalType": "string",
          "name": "_name",
          "type": "string"
        },
        {
          "internalType": "string",
          "name": "_desc",
          "type": "string"
        }
      ],
      "name": "editCandidate",
      "outputs": [],
      "stateMutability": "nonpayable",
      "type": "function"
    },
    {
      "inputs": [
        {
          "internalType": "uint256",
          "name": "id",
          "type": "uint256"
        }
      ],
      "name": "deleteCandidate",
      "outputs": [],
      "stateMutability": "nonpayable",
      "type": "function"
    },
    {
      "inputs": [],
      "name": "finishVoting",
      "outputs": [],
      "stateMutability": "nonpayable",
      "type": "function"
    },
    {
      "inputs": [],
      "name": "startVoting",
      "outputs": [],
      "stateMutability": "nonpayable",
      "type": "function"
    },
    {
      "inputs": [
        {
          "internalType": "uint256",
          "name": "id",
          "type": "uint256"
        }
      ],
      "name": "vote",
      "outputs": [],
      "stateMutability": "nonpayable",
      "type": "function"
    },
    {
      "inputs": [],
      "name": "abstain",
      "outputs": [],
      "stateMutability": "nonpayable",
      "type": "function"
    },
    {
      "inputs": [
        {
          "internalType": "uint256",
          "name": "id",
          "type": "uint256"
        }
      ],
      "name": "getCandidate",
      "outputs": [
        {
          "internalType": "uint256",
          "name": "",
          "type": "uint256"
        },
        {
          "internalType": "string",
          "name": "",
          "type": "string"
        },
        {
          "internalType": "string",
          "name": "",
          "type": "string"
        },
        {
          "internalType": "uint256",
          "name": "",
          "type": "uint256"
        }
      ],
      "stateMutability": "view",
      "type": "function"
    },
    {
      "inputs": [],
      "name": "candidatesNum",
      "outputs": [
        {
          "internalType": "uint256",
          "name": "",
          "type": "uint256"
        }
      ],
      "stateMutability": "view",
      "type": "function"
    },
    {
      "inputs": [],
      "name": "getWinningCandidate",
      "outputs": [
        {
          "internalType": "uint256",
          "name": "",
          "type": "uint256"
        },
        {
          "internalType": "string",
          "name": "",
          "type": "string"
        },
        {
          "internalType": "string",
          "name": "",
          "type": "string"
        },
        {
          "internalType": "uint256",
          "name": "",
          "type": "uint256"
        }
      ],
      "stateMutability": "view",
      "type": "function"
    }
  ],
  "bytecode": "0x608060405234801561001057600080fd5b5060405161237a38038061237a8339818101604052606081101561003357600080fd5b810190808051906020019092919080519060200190929190805190602001909291905050504282116100b0576040517f08c379a00000000000000000000000000000000000000000000000000000000081526004018080602001828103825260248152602001806123566024913960400191505060405180910390fd5b82600560006101000a81548173ffffffffffffffffffffffffffffffffffffffff021916908373ffffffffffffffffffffffffffffffffffffffff16021790555060008060006101000a81548160ff0219169083600281111561010f57fe5b02179055508160048190555080600560146101000a81548160ff02191690831515021790555050505061220f806101476000396000f3fe608060405234801561001057600080fd5b50600436106101215760003560e01c8063555a218e116100ad578063c040e6b811610071578063c040e6b8146106a4578063e0887335146106cd578063f4ab9adf146106eb578063f90943031461072f578063f927cc291461073957610121565b8063555a218e1461060a5780635e98e4c71461062a57806373c93316146106345780638da5cb5b14610652578063ac5d1f101461068657610121565b80632324770e116100f45780632324770e146102e857806326541b561461035b5780633197cbb6146104ad57806335b8e820146104cb5780633846c183146105ec57610121565b80630121b93f146101265780630c3573e8146101545780631e620cd4146102b05780631ec6b60a146102de575b600080fd5b6101526004803603602081101561013c57600080fd5b8101908080359060200190929190505050610836565b005b6102ae6004803603606081101561016a57600080fd5b81019080803590602001909291908035906020019064010000000081111561019157600080fd5b8201836020820111156101a357600080fd5b803590602001918460018302840111640100000000831117156101c557600080fd5b91908080601f016020809104026020016040519081016040528093929190818152602001838380828437600081840152601f19601f8201169050808301925050505050505091929192908035906020019064010000000081111561022857600080fd5b82018360208201111561023a57600080fd5b8035906020019184600183028401116401000000008311171561025c57600080fd5b91908080601f016020809104026020016040519081016040528093929190818152602001838380828437600081840152601f19601f820116905080830192505050505050509192919290505050610c32565b005b6102dc600480360360208110156102c657600080fd5b8101908080359060200190929190505050610dfb565b005b6102e6610fa2565b005b61032a600480360360208110156102fe57600080fd5b81019080803573ffffffffffffffffffffffffffffffffffffffff169060200190929190505050611125565b6040518085151581526020018415158152602001831515815260200182815260200194505050505060405180910390f35b6104ab6004803603604081101561037157600080fd5b810190808035906020019064010000000081111561038e57600080fd5b8201836020820111156103a057600080fd5b803590602001918460018302840111640100000000831117156103c257600080fd5b91908080601f016020809104026020016040519081016040528093929190818152602001838380828437600081840152601f19601f8201169050808301925050505050505091929192908035906020019064010000000081111561042557600080fd5b82018360208201111561043757600080fd5b8035906020019184600183028401116401000000008311171561045957600080fd5b91908080601f016020809104026020016040519081016040528093929190818152602001838380828437600081840152601f19601f82011690508083019250505050505050919291929050505061117c565b005b6104b561136b565b6040518082815260200191505060405180910390f35b6104f7600480360360208110156104e157600080fd5b8101908080359060200190929190505050611371565b604051808581526020018060200180602001848152602001838103835286818151815260200191508051906020019080838360005b8381101561054757808201518184015260208101905061052c565b50505050905090810190601f1680156105745780820380516001836020036101000a031916815260200191505b50838103825285818151815260200191508051906020019080838360005b838110156105ad578082015181840152602081019050610592565b50505050905090810190601f1680156105da5780820380516001836020036101000a031916815260200191505b50965050505050505060405180910390f35b6105f46116cb565b6040518082815260200191505060405180910390f35b6106126116d1565b60405180821515815260200191505060405180910390f35b6106326116e4565b005b61063c61194b565b6040518082815260200191505060405180910390f35b61065a611951565b604051808273ffffffffffffffffffffffffffffffffffffffff16815260200191505060405180910390f35b61068e611977565b6040518082815260200191505060405180910390f35b6106ac61197d565b604051808260028111156106bc57fe5b815260200191505060405180910390f35b6106d561198e565b6040518082815260200191505060405180910390f35b61072d6004803603602081101561070157600080fd5b81019080803573ffffffffffffffffffffffffffffffffffffffff16906020019092919050505061199b565b005b610737611b91565b005b610741611cf0565b604051808581526020018060200180602001848152602001838103835286818151815260200191508051906020019080838360005b83811015610791578082015181840152602081019050610776565b50505050905090810190601f1680156107be5780820380516001836020036101000a031916815260200191505b50838103825285818151815260200191508051906020019080838360005b838110156107f75780820151818401526020810190506107dc565b50505050905090810190601f1680156108245780820380516001836020036101000a031916815260200191505b50965050505050505060405180910390f35b600180600281111561084457fe5b60008054906101000a900460ff16600281111561085d57fe5b146108d0576040517f08c379a000000000000000000000000000000000000000000000000000000000815260040180806020018281038252601a8152602001807f4e6f742076616c696420696e2063757272656e7420737461676500000000000081525060200191505060405180910390fd5b33600760008273ffffffffffffffffffffffffffffffffffffffff1673ffffffffffffffffffffffffffffffffffffffff16815260200190815260200160002060000160029054906101000a900460ff1615801561097a5750600760008273ffffffffffffffffffffffffffffffffffffffff1673ffffffffffffffffffffffffffffffffffffffff16815260200190815260200160002060000160009054906101000a900460ff165b6109cf576040517f08c379a00000000000000000000000000000000000000000000000000000000081526004018080602001828103825260298152602001806121906029913960400191505060405180910390fd5b600683815481106109dc57fe5b906000526020600020906003020160020160008154809291906001019190505550600760003373ffffffffffffffffffffffffffffffffffffffff1673ffffffffffffffffffffffffffffffffffffffff16815260200190815260200160002060000160019054906101000a900460ff1615610ac1576000600760003373ffffffffffffffffffffffffffffffffffffffff1673ffffffffffffffffffffffffffffffffffffffff16815260200190815260200160002060000160016101000a81548160ff021916908315150217905550600360008154809291906001900391905055505b610ac961205b565b600181600001901515908115158152505060018160400190151590811515815250504281606001818152505080600760003373ffffffffffffffffffffffffffffffffffffffff1673ffffffffffffffffffffffffffffffffffffffff16815260200190815260200160002060008201518160000160006101000a81548160ff02191690831515021790555060208201518160000160016101000a81548160ff02191690831515021790555060408201518160000160026101000a81548160ff02191690831515021790555060608201518160010155905050600160008154809291906001019190505550600560149054906101000a900460ff168015610c03575060026064600354600254030281610bde57fe5b04606460068681548110610bee57fe5b90600052602060002090600302016002015402115b15610c2c5760026000806101000a81548160ff02191690836002811115610c2657fe5b02179055505b50505050565b600560009054906101000a900473ffffffffffffffffffffffffffffffffffffffff1673ffffffffffffffffffffffffffffffffffffffff163373ffffffffffffffffffffffffffffffffffffffff1614610cf5576040517f08c379a000000000000000000000000000000000000000000000000000000000815260040180806020018281038252600c8152602001807f6973206e6f74206f776e6572000000000000000000000000000000000000000081525060200191505060405180910390fd5b6000806002811115610d0357fe5b60008054906101000a900460ff166002811115610d1c57fe5b14610d8f576040517f08c379a000000000000000000000000000000000000000000000000000000000815260040180806020018281038252601a8152602001807f4e6f742076616c696420696e2063757272656e7420737461676500000000000081525060200191505060405180910390fd5b8260068581548110610d9d57fe5b90600052602060002090600302016000019080519060200190610dc1929190612089565b508160068581548110610dd057fe5b90600052602060002090600302016001019080519060200190610df4929190612089565b5050505050565b600560009054906101000a900473ffffffffffffffffffffffffffffffffffffffff1673ffffffffffffffffffffffffffffffffffffffff163373ffffffffffffffffffffffffffffffffffffffff1614610ebe576040517f08c379a000000000000000000000000000000000000000000000000000000000815260040180806020018281038252600c8152602001807f6973206e6f74206f776e6572000000000000000000000000000000000000000081525060200191505060405180910390fd5b6000806002811115610ecc57fe5b60008054906101000a900460ff166002811115610ee557fe5b14610f58576040517f08c379a000000000000000000000000000000000000000000000000000000000815260040180806020018281038252601a8152602001807f4e6f742076616c696420696e2063757272656e7420737461676500000000000081525060200191505060405180910390fd5b60068281548110610f6557fe5b906000526020600020906003020160008082016000610f849190612109565b600182016000610f949190612109565b600282016000905550505050565b600560009054906101000a900473ffffffffffffffffffffffffffffffffffffffff1673ffffffffffffffffffffffffffffffffffffffff163373ffffffffffffffffffffffffffffffffffffffff1614611065576040517f08c379a000000000000000000000000000000000000000000000000000000000815260040180806020018281038252600c8152602001807f6973206e6f74206f776e6572000000000000000000000000000000000000000081525060200191505060405180910390fd5b600080600281111561107357fe5b60008054906101000a900460ff16600281111561108c57fe5b146110ff576040517f08c379a000000000000000000000000000000000000000000000000000000000815260040180806020018281038252601a8152602001807f4e6f742076616c696420696e2063757272656e7420737461676500000000000081525060200191505060405180910390fd5b60016000806101000a81548160ff0219169083600281111561111d57fe5b021790555050565b60076020528060005260406000206000915090508060000160009054906101000a900460ff16908060000160019054906101000a900460ff16908060000160029054906101000a900460ff16908060010154905084565b600560009054906101000a900473ffffffffffffffffffffffffffffffffffffffff1673ffffffffffffffffffffffffffffffffffffffff163373ffffffffffffffffffffffffffffffffffffffff161461123f576040517f08c379a000000000000000000000000000000000000000000000000000000000815260040180806020018281038252600c8152602001807f6973206e6f74206f776e6572000000000000000000000000000000000000000081525060200191505060405180910390fd5b600080600281111561124d57fe5b60008054906101000a900460ff16600281111561126657fe5b146112d9576040517f08c379a000000000000000000000000000000000000000000000000000000000815260040180806020018281038252601a8152602001807f4e6f742076616c696420696e2063757272656e7420737461676500000000000081525060200191505060405180910390fd5b6112e1612151565b8381600001819052508281602001819052506006819080600181540180825580915050600190039060005260206000209060030201600090919091909150600082015181600001908051906020019061133b929190612089565b506020820151816001019080519060200190611358929190612089565b5060408201518160020155505050505050565b60045481565b6000606080600060028081111561138457fe5b60008054906101000a900460ff16600281111561139d57fe5b14156115445784600686815481106113b157fe5b9060005260206000209060030201600001600687815481106113cf57fe5b9060005260206000209060030201600101600688815481106113ed57fe5b906000526020600020906003020160020154828054600181600116156101000203166002900480601f0160208091040260200160405190810160405280929190818152602001828054600181600116156101000203166002900480156114945780601f1061146957610100808354040283529160200191611494565b820191906000526020600020905b81548152906001019060200180831161147757829003601f168201915b50505050509250818054600181600116156101000203166002900480601f0160208091040260200160405190810160405280929190818152602001828054600181600116156101000203166002900480156115305780601f1061150557610100808354040283529160200191611530565b820191906000526020600020905b81548152906001019060200180831161151357829003601f168201915b5050505050915093509350935093506116c4565b846006868154811061155257fe5b90600052602060002090600302016000016006878154811061157057fe5b90600052602060002090600302016001016000828054600181600116156101000203166002900480601f0160208091040260200160405190810160405280929190818152602001828054600181600116156101000203166002900480156116185780601f106115ed57610100808354040283529160200191611618565b820191906000526020600020905b8154815290600101906020018083116115fb57829003601f168201915b50505050509250818054600181600116156101000203166002900480601f0160208091040260200160405190810160405280929190818152602001828054600181600116156101000203166002900480156116b45780601f10611689576101008083540402835291602001916116b4565b820191906000526020600020905b81548152906001019060200180831161169757829003601f168201915b5050505050915093509350935093505b9193509193565b60025481565b600560149054906101000a900460ff1681565b60018060028111156116f257fe5b60008054906101000a900460ff16600281111561170b57fe5b1461177e576040517f08c379a000000000000000000000000000000000000000000000000000000000815260040180806020018281038252601a8152602001807f4e6f742076616c696420696e2063757272656e7420737461676500000000000081525060200191505060405180910390fd5b33600760008273ffffffffffffffffffffffffffffffffffffffff1673ffffffffffffffffffffffffffffffffffffffff16815260200190815260200160002060000160029054906101000a900460ff161580156118285750600760008273ffffffffffffffffffffffffffffffffffffffff1673ffffffffffffffffffffffffffffffffffffffff16815260200190815260200160002060000160009054906101000a900460ff165b61187d576040517f08c379a00000000000000000000000000000000000000000000000000000000081526004018080602001828103825260298152602001806121906029913960400191505060405180910390fd5b6001600760003373ffffffffffffffffffffffffffffffffffffffff1673ffffffffffffffffffffffffffffffffffffffff16815260200190815260200160002060000160016101000a81548160ff0219169083151502179055506003600081548092919060010191905055506118f2611f27565b611947576040517f08c379a00000000000000000000000000000000000000000000000000000000081526004018080602001828103825260218152602001806121b96021913960400191505060405180910390fd5b5050565b60015481565b600560009054906101000a900473ffffffffffffffffffffffffffffffffffffffff1681565b60035481565b60008054906101000a900460ff1681565b6000600680549050905090565b600560009054906101000a900473ffffffffffffffffffffffffffffffffffffffff1673ffffffffffffffffffffffffffffffffffffffff163373ffffffffffffffffffffffffffffffffffffffff1614611a5e576040517f08c379a000000000000000000000000000000000000000000000000000000000815260040180806020018281038252600c8152602001807f6973206e6f74206f776e6572000000000000000000000000000000000000000081525060200191505060405180910390fd5b600760008273ffffffffffffffffffffffffffffffffffffffff1673ffffffffffffffffffffffffffffffffffffffff16815260200190815260200160002060000160009054906101000a900460ff1615611b21576040517f08c379a00000000000000000000000000000000000000000000000000000000081526004018080602001828103825260148152602001807f766f74657220616c72656164792065786973747300000000000000000000000081525060200191505060405180910390fd5b6001600760008373ffffffffffffffffffffffffffffffffffffffff1673ffffffffffffffffffffffffffffffffffffffff16815260200190815260200160002060000160006101000a81548160ff02191690831515021790555060026000815480929190600101919050555050565b600560009054906101000a900473ffffffffffffffffffffffffffffffffffffffff1673ffffffffffffffffffffffffffffffffffffffff163373ffffffffffffffffffffffffffffffffffffffff1614611c54576040517f08c379a000000000000000000000000000000000000000000000000000000000815260040180806020018281038252600c8152602001807f6973206e6f74206f776e6572000000000000000000000000000000000000000081525060200191505060405180910390fd5b6004544211611ccb576040517f08c379a000000000000000000000000000000000000000000000000000000000815260040180806020018281038252601f8152602001807f766f74696e672074696d65206973206e6f742066696e6973686564207965740081525060200191505060405180910390fd5b60026000806101000a81548160ff02191690836002811115611ce957fe5b0217905550565b600060608060006002806002811115611d0557fe5b60008054906101000a900460ff166002811115611d1e57fe5b14611d91576040517f08c379a000000000000000000000000000000000000000000000000000000000815260040180806020018281038252601a8152602001807f4e6f742076616c696420696e2063757272656e7420737461676500000000000081525060200191505060405180910390fd5b600080611d9c611f96565b915091508160068381548110611dae57fe5b906000526020600020906003020160000160068481548110611dcc57fe5b906000526020600020906003020160010183828054600181600116156101000203166002900480601f016020809104026020016040519081016040528092919081815260200182805460018160011615610100020316600290048015611e735780601f10611e4857610100808354040283529160200191611e73565b820191906000526020600020905b815481529060010190602001808311611e5657829003601f168201915b50505050509250818054600181600116156101000203166002900480601f016020809104026020016040519081016040528092919081815260200182805460018160011615610100020316600290048015611f0f5780601f10611ee457610100808354040283529160200191611f0f565b820191906000526020600020905b815481529060010190602001808311611ef257829003601f168201915b50505050509150965096509650965050505090919293565b6000600560149054906101000a900460ff1615611f8f576000611f48611f96565b91505060026064600354600254030281611f5e57fe5b04606482021115611f8d5760026000806101000a81548160ff02191690836002811115611f8757fe5b02179055505b505b6001905090565b60008060005b600680549050816fffffffffffffffffffffffffffffffff16101561204957816006826fffffffffffffffffffffffffffffffff1681548110611fdb57fe5b906000526020600020906003020160020154111561203c576006816fffffffffffffffffffffffffffffffff168154811061201257fe5b9060005260206000209060030201600201549150806fffffffffffffffffffffffffffffffff1692505b8080600101915050611f9c565b506000811161205757600080fd5b9091565b6040518060800160405280600015158152602001600015158152602001600015158152602001600081525090565b828054600181600116156101000203166002900490600052602060002090601f016020900481019282601f106120ca57805160ff19168380011785556120f8565b828001600101855582156120f8579182015b828111156120f75782518255916020019190600101906120dc565b5b5090506121059190612172565b5090565b50805460018160011615610100020316600290046000825580601f1061212f575061214e565b601f01602090049060005260206000209081019061214d9190612172565b5b50565b60405180606001604052806060815260200160608152602001600081525090565b5b8082111561218b576000816000905550600101612173565b509056fe766f74657220646f6573206e6f74206578697374206f72206861766520766f746564206265666f7265636f756c64206e6f7420636f756e742072656163686564207468726573686f6c64a2646970667358221220c4719525398bbc1695a60d491885c1b7535d86f9315c72a3040e42540269eb5464736f6c63430007000033566f746520656e642074696d652063616e206e6f7420626520696e207468652070617374",
  "immutableReferences": {},
  "source": "// SPDX-License-Identifier: UNLICENSED\npragma solidity ^0.7.0;\n\n/// @author Youssef Alaa\n/// @title Voting contract for managing each voting process\n/// @dev This contract is not deployed Initially but is created by VotingFactory\ncontract Voting{\n    //holds the info of each Candidate that will be voted for\n    struct Candidate{\n        string name;\n        string desc;\n        uint voteNum;\n    }\n    //For registring Votes\n    struct Voter {\n        bool exists;\n        bool abstains;\n        bool voted;\n    \tuint timestamp;\n    }\n\n    enum Stage { Init, Vote, Finished }\n    Stage public stage;\n    // uint public targetTotalVotes;\n    uint public votesNum;\n    uint public votersNum;\n    uint public abstainersNum;\n    uint public endTime;\n    address public owner;\n    bool public thresholdVote;\n    Candidate[] candidates;\n    mapping(address => Voter) public voterToDetails;\n\n    constructor(address _owner, uint _endTime, bool _thresholdVote) {\n        require(_endTime > block.timestamp, \"Vote end time can not be in the past\");\n        owner = _owner;\n        stage = Stage.Init;\n        endTime = _endTime;\n        thresholdVote = _thresholdVote;\n    }\n\n    modifier validStage(Stage reqStage) {\n        require(stage == reqStage, \"Not valid in current stage\");\n        _;\n    }\n    modifier isOwner() {\n        require(msg.sender == owner , \"is not owner\");\n        _;\n    }\n    modifier isVoter(address newVoter) {\n        require(!voterToDetails[newVoter].voted && voterToDetails[newVoter].exists, \"voter does not exist or have voted before\");\n        _;\n    }\n\n    /// @notice Add a new candidate to be voted for\n    /// @dev Function should be called by owner and before the voting process starts\n    /// @param _name Name of Candidate\n    /// @param _desc Candidate's Description\n    function addCandidate(string memory _name, string memory _desc) external isOwner() validStage(Stage.Init) {\n        Candidate memory _candidate;\n        _candidate.name = _name;\n        _candidate.desc = _desc;\n        candidates.push(_candidate);\n    }\n\n    /// @notice Give a certain address the right to vote\n    /// @dev Function should be called by owner and before the voting process starts\n    /// @param voter address of the user to be allowed\n    function addVoter(address voter) external isOwner() {\n        require(!voterToDetails[voter].exists, \"voter already exists\");\n        voterToDetails[voter].exists = true;\n        votersNum ++;\n    }\n\n    /// @notice Edit candidate's name and description\n    /// @dev Function should be called by owner and before the voting process starts\n    /// @param id ID of existing Candidate\n    /// @param _name Changed name of Candidate\n    /// @param _desc Changed candidate's description\n    function editCandidate(uint id,string memory _name, string memory _desc) external isOwner() validStage(Stage.Init) {\n        candidates[id].name = _name;\n        candidates[id].desc = _desc;\n    }\n\n    /// @notice Delete candidate by Id\n    /// @dev Function should be called by owner and before the voting process starts\n    /// @param id ID of existing Candidate\n    function deleteCandidate(uint id) external isOwner() validStage(Stage.Init) {\n        delete(candidates[id]);\n    }\n\n    /// @notice Finish voting process\n    /// @dev Function should be called by owner and while voting is stopped\n    function finishVoting() external isOwner() {\n        require(block.timestamp > endTime, \"voting time is not finished yet\");\n        stage = Stage.Finished;\n    }\n\n    /// @notice Allow voters to start voting\n    /// @dev Function should be called by owner and while voting is stopped\n    function startVoting() external isOwner() validStage(Stage.Init) {\n        stage = Stage.Vote;\n    }\n\n    /// @notice Vote for a candidate\n    /** @dev Function should be called after the voting process has started and by a registered voter */\n    /// @param id ID of existing Candidate\n    function vote(uint id) external validStage(Stage.Vote) isVoter(msg.sender) {\n        candidates[id].voteNum ++;\n        //checks if the voter abstained before;\n        if(voterToDetails[msg.sender].abstains) {\n            voterToDetails[msg.sender].abstains = false;\n            abstainersNum --;\n        }\n        // add new voter\n        Voter memory _voter;\n        _voter.exists = true;\n        _voter.voted = true;\n        _voter.timestamp = block.timestamp;\n        voterToDetails[msg.sender] = _voter;\n        // increment voternum\n        votesNum ++;\n        // finish vote if votes for one candidate is > (VoterNum - VoteAbstain)/2 in a threshold Voting process\n        // * 100 is addded to workaround solidity's inability to deal with floats\n        if (thresholdVote && (candidates[id].voteNum * 100) > (((votersNum - abstainersNum) * 100)/2)) {\n            stage = Stage.Finished;\n        }\n    }\n\n    /// @notice Abstain from this vote\n    /** @dev Function should be called after the voting process has started and by a registered voter */\n    function abstain() external validStage(Stage.Vote) isVoter(msg.sender) {\n        voterToDetails[msg.sender].abstains = true;\n        abstainersNum ++;\n        require(reachedThreshold(), \"could not count reached threshold\");\n    }\n\n    /// @notice Get Candidate details by it's Id\n    /** @dev When called in voting phase it will exclude the number of votes for that candidate returning 0,\n        The real number will be returned when called after voting ends */\n    /// @param id Id of the Candidate\n    /// @return Candidate's ID\n    /// @return Candidate's name\n    /// @return Candidate's description\n    /// @return Candidate's votes number\n    function getCandidate(uint id) external view returns(uint, string memory, string memory, uint) {\n        if (stage == Stage.Finished) {\n            return(id, candidates[id].name, candidates[id].desc, candidates[id].voteNum);\n        } else {\n            return(id, candidates[id].name, candidates[id].desc, 0);\n        }\n    }\n\n    /// @notice Get Candidates number\n    /// @return Return the number of registered candidates\n    function candidatesNum() external view returns(uint) {\n       return(candidates.length);\n    }\n\n    /// @return Return id of the winning Candidate\n    /// @return Return name of the winning Candidate\n    /// @return Return description of the winning Candidate\n    /// @return Return Number of votes for the winning Candidate\n    function getWinningCandidate() external view validStage(Stage.Finished) returns(uint, string memory, string memory, uint) {\n        (uint highestCandidate, uint winningVoteNum) = getHighestCandidate();\n        return(highestCandidate, candidates[highestCandidate].name, candidates[highestCandidate].desc, winningVoteNum);\n    }\n\n    function reachedThreshold() internal returns(bool) {\n        if(thresholdVote) {\n            ( , uint winningVoteNum) = getHighestCandidate();\n            if((winningVoteNum * 100) > (((votersNum - abstainersNum) * 100)/2)) {\n                stage = Stage.Finished;\n            }\n        }\n        return true;\n    }\n\n    function getHighestCandidate() internal view returns (uint highestCandidate, uint winningVoteNum) {\n        for (uint128 p = 0; p < candidates.length; p++) {\n            if (candidates[p].voteNum > winningVoteNum) {\n                winningVoteNum = candidates[p].voteNum;\n                highestCandidate = p;\n            }\n        }\n        require(winningVoteNum > 0);\n    }\n}",
  "sourcePath": "/home/youssef/voting-smartcontracts/contracts/Voting.sol",
  "compiler": {
    "name": "solc",
    "version": "0.7.0+commit.9e61f92b.Emscripten.clang"
  },
  "schemaVersion": "3.2.0",
  "updatedAt": "2020-09-09T12:59:10.501Z",
  "devdoc": {
    "author": "Youssef Alaa",
    "details": "This contract is not deployed Initially but is created by VotingFactory",
    "kind": "dev",
    "methods": {
      "abstain()": {
        "details": "Function should be called after the voting process has started and by a registered voter "
      },
      "addCandidate(string,string)": {
        "details": "Function should be called by owner and before the voting process starts",
        "params": {
          "_desc": "Candidate's Description",
          "_name": "Name of Candidate"
        }
      },
      "addVoter(address)": {
        "details": "Function should be called by owner and before the voting process starts",
        "params": {
          "voter": "address of the user to be allowed"
        }
      },
      "candidatesNum()": {
        "returns": {
          "_0": "Return the number of registered candidates"
        }
      },
      "deleteCandidate(uint256)": {
        "details": "Function should be called by owner and before the voting process starts",
        "params": {
          "id": "ID of existing Candidate"
        }
      },
      "editCandidate(uint256,string,string)": {
        "details": "Function should be called by owner and before the voting process starts",
        "params": {
          "_desc": "Changed candidate's description",
          "_name": "Changed name of Candidate",
          "id": "ID of existing Candidate"
        }
      },
      "finishVoting()": {
        "details": "Function should be called by owner and while voting is stopped"
      },
      "getCandidate(uint256)": {
        "params": {
          "id": "Id of the Candidate"
        },
        "returns": {
          "_0": "Candidate's ID",
          "_1": "Candidate's name",
          "_2": "Candidate's description",
          "_3": "Candidate's votes number"
        }
      },
      "getWinningCandidate()": {
        "returns": {
          "_0": "Return id of the winning Candidate",
          "_1": "Return name of the winning Candidate",
          "_2": "Return description of the winning Candidate",
          "_3": "Return Number of votes for the winning Candidate"
        }
      },
      "startVoting()": {
        "details": "Function should be called by owner and while voting is stopped"
      },
      "vote(uint256)": {
        "params": {
          "id": "ID of existing Candidate"
        }
      }
    },
    "title": "Voting contract for managing each voting process",
    "version": 1
  },
  "userdoc": {
    "kind": "user",
    "methods": {
      "addCandidate(string,string)": {
        "notice": "Add a new candidate to be voted for"
      },
      "addVoter(address)": {
        "notice": "Give a certain address the right to vote"
      },
      "candidatesNum()": {
        "notice": "Get Candidates number"
      },
      "deleteCandidate(uint256)": {
        "notice": "Delete candidate by Id"
      },
      "editCandidate(uint256,string,string)": {
        "notice": "Edit candidate's name and description"
      },
      "finishVoting()": {
        "notice": "Finish voting process"
      },
      "startVoting()": {
        "notice": "Allow voters to start voting"
      }
    },
    "version": 1
  }
}