{
  "contractName": "VotingFactory",
  "abi": [
    {
      "inputs": [],
      "stateMutability": "nonpayable",
      "type": "constructor"
    },
    {
      "inputs": [],
      "name": "compaignsNum",
      "outputs": [
        {
          "internalType": "uint256",
          "name": "",
          "type": "uint256"
        }
      ],
      "stateMutability": "view",
      "type": "function"
    },
    {
      "inputs": [],
      "name": "owner",
      "outputs": [
        {
          "internalType": "address",
          "name": "",
          "type": "address"
        }
      ],
      "stateMutability": "view",
      "type": "function"
    },
    {
      "inputs": [
        {
          "internalType": "string",
          "name": "_name",
          "type": "string"
        },
        {
          "internalType": "uint256",
          "name": "endTime",
          "type": "uint256"
        },
        {
          "internalType": "address",
          "name": "_owner",
          "type": "address"
        },
        {
          "internalType": "bool",
          "name": "thresholdVote",
          "type": "bool"
        }
      ],
      "name": "createNewCampaign",
      "outputs": [],
      "stateMutability": "nonpayable",
      "type": "function"
    },
    {
      "inputs": [
        {
          "internalType": "uint256",
          "name": "id",
          "type": "uint256"
        }
      ],
      "name": "getCampaign",
      "outputs": [
        {
          "internalType": "uint256",
          "name": "",
          "type": "uint256"
        },
        {
          "internalType": "address",
          "name": "",
          "type": "address"
        },
        {
          "internalType": "string",
          "name": "",
          "type": "string"
        },
        {
          "internalType": "uint256",
          "name": "",
          "type": "uint256"
        }
      ],
      "stateMutability": "view",
      "type": "function"
    }
  ],
  "bytecode": "0x608060405234801561001057600080fd5b50336000806101000a81548173ffffffffffffffffffffffffffffffffffffffff021916908373ffffffffffffffffffffffffffffffffffffffff160217905550612996806100606000396000f3fe608060405234801561001057600080fd5b506004361061004c5760003560e01c806347347b06146100515780635598f8cc1461006f5780638da5cb5b14610141578063eca1ae7b14610175575b600080fd5b610059610266565b6040518082815260200191505060405180910390f35b61009b6004803603602081101561008557600080fd5b810190808035906020019092919050505061026c565b604051808581526020018473ffffffffffffffffffffffffffffffffffffffff16815260200180602001838152602001828103825284818151815260200191508051906020019080838360005b838110156101035780820151818401526020810190506100e8565b50505050905090810190601f1680156101305780820380516001836020036101000a031916815260200191505b509550505050505060405180910390f35b610149610383565b604051808273ffffffffffffffffffffffffffffffffffffffff16815260200191505060405180910390f35b6102646004803603608081101561018b57600080fd5b81019080803590602001906401000000008111156101a857600080fd5b8201836020820111156101ba57600080fd5b803590602001918460018302840111640100000000831117156101dc57600080fd5b91908080601f016020809104026020016040519081016040528093929190818152602001838380828437600081840152601f19601f82011690508083019250505050505050919291929080359060200190929190803573ffffffffffffffffffffffffffffffffffffffff1690602001909291908035151590602001909291905050506103a7565b005b60015481565b60008060606000846002600087815260200190815260200160002060000160009054906101000a900473ffffffffffffffffffffffffffffffffffffffff16600260008881526020019081526020016000206001016002600089815260200190815260200160002060020154818054600181600116156101000203166002900480601f01602080910402602001604051908101604052809291908181526020018280546001816001161561010002031660029004801561036d5780601f106103425761010080835404028352916020019161036d565b820191906000526020600020905b81548152906001019060200180831161035057829003601f168201915b5050505050915093509350935093509193509193565b60008054906101000a900473ffffffffffffffffffffffffffffffffffffffff1681565b60008054906101000a900473ffffffffffffffffffffffffffffffffffffffff1673ffffffffffffffffffffffffffffffffffffffff163373ffffffffffffffffffffffffffffffffffffffff16146103ff57600080fd5b61040761054f565b82848360405161041690610586565b808473ffffffffffffffffffffffffffffffffffffffff16815260200183815260200182151581526020019350505050604051809103906000f080158015610462573d6000803e3d6000fd5b50816000019073ffffffffffffffffffffffffffffffffffffffff16908173ffffffffffffffffffffffffffffffffffffffff16815250508481602001819052504281604001818152505080600260006001805401815260200190815260200160002060008201518160000160006101000a81548173ffffffffffffffffffffffffffffffffffffffff021916908373ffffffffffffffffffffffffffffffffffffffff1602179055506020820151816001019080519060200190610528929190610593565b50604082015181600201559050506001600081548092919060010191905055505050505050565b6040518060600160405280600073ffffffffffffffffffffffffffffffffffffffff16815260200160608152602001600081525090565b6123308061063183390190565b828054600181600116156101000203166002900490600052602060002090601f016020900481019282601f106105d457805160ff1916838001178555610602565b82800160010185558215610602579182015b828111156106015782518255916020019190600101906105e6565b5b50905061060f9190610613565b5090565b5b8082111561062c576000816000905550600101610614565b509056fe608060405234801561001057600080fd5b506040516123303803806123308339818101604052606081101561003357600080fd5b810190808051906020019092919080519060200190929190805190602001909291905050504282116100b0576040517f08c379a000000000000000000000000000000000000000000000000000000000815260040180806020018281038252602481526020018061230c6024913960400191505060405180910390fd5b82600560006101000a81548173ffffffffffffffffffffffffffffffffffffffff021916908373ffffffffffffffffffffffffffffffffffffffff16021790555060008060006101000a81548160ff0219169083600281111561010f57fe5b02179055508160048190555080600560146101000a81548160ff0219169083151502179055505050506121c5806101476000396000f3fe608060405234801561001057600080fd5b50600436106101215760003560e01c8063555a218e116100ad578063c040e6b811610071578063c040e6b8146106a4578063e0887335146106cd578063f4ab9adf146106eb578063f90943031461072f578063f927cc291461073957610121565b8063555a218e1461060a5780635e98e4c71461062a57806373c93316146106345780638da5cb5b14610652578063ac5d1f101461068657610121565b80632324770e116100f45780632324770e146102e857806326541b561461035b5780633197cbb6146104ad57806335b8e820146104cb5780633846c183146105ec57610121565b80630121b93f146101265780630c3573e8146101545780631e620cd4146102b05780631ec6b60a146102de575b600080fd5b6101526004803603602081101561013c57600080fd5b8101908080359060200190929190505050610836565b005b6102ae6004803603606081101561016a57600080fd5b81019080803590602001909291908035906020019064010000000081111561019157600080fd5b8201836020820111156101a357600080fd5b803590602001918460018302840111640100000000831117156101c557600080fd5b91908080601f016020809104026020016040519081016040528093929190818152602001838380828437600081840152601f19601f8201169050808301925050505050505091929192908035906020019064010000000081111561022857600080fd5b82018360208201111561023a57600080fd5b8035906020019184600183028401116401000000008311171561025c57600080fd5b91908080601f016020809104026020016040519081016040528093929190818152602001838380828437600081840152601f19601f820116905080830192505050505050509192919290505050610be8565b005b6102dc600480360360208110156102c657600080fd5b8101908080359060200190929190505050610db1565b005b6102e6610f58565b005b61032a600480360360208110156102fe57600080fd5b81019080803573ffffffffffffffffffffffffffffffffffffffff1690602001909291905050506110db565b6040518085151581526020018415158152602001831515815260200182815260200194505050505060405180910390f35b6104ab6004803603604081101561037157600080fd5b810190808035906020019064010000000081111561038e57600080fd5b8201836020820111156103a057600080fd5b803590602001918460018302840111640100000000831117156103c257600080fd5b91908080601f016020809104026020016040519081016040528093929190818152602001838380828437600081840152601f19601f8201169050808301925050505050505091929192908035906020019064010000000081111561042557600080fd5b82018360208201111561043757600080fd5b8035906020019184600183028401116401000000008311171561045957600080fd5b91908080601f016020809104026020016040519081016040528093929190818152602001838380828437600081840152601f19601f820116905080830192505050505050509192919290505050611132565b005b6104b5611321565b6040518082815260200191505060405180910390f35b6104f7600480360360208110156104e157600080fd5b8101908080359060200190929190505050611327565b604051808581526020018060200180602001848152602001838103835286818151815260200191508051906020019080838360005b8381101561054757808201518184015260208101905061052c565b50505050905090810190601f1680156105745780820380516001836020036101000a031916815260200191505b50838103825285818151815260200191508051906020019080838360005b838110156105ad578082015181840152602081019050610592565b50505050905090810190601f1680156105da5780820380516001836020036101000a031916815260200191505b50965050505050505060405180910390f35b6105f4611681565b6040518082815260200191505060405180910390f35b610612611687565b60405180821515815260200191505060405180910390f35b61063261169a565b005b61063c611901565b6040518082815260200191505060405180910390f35b61065a611907565b604051808273ffffffffffffffffffffffffffffffffffffffff16815260200191505060405180910390f35b61068e61192d565b6040518082815260200191505060405180910390f35b6106ac611933565b604051808260028111156106bc57fe5b815260200191505060405180910390f35b6106d5611944565b6040518082815260200191505060405180910390f35b61072d6004803603602081101561070157600080fd5b81019080803573ffffffffffffffffffffffffffffffffffffffff169060200190929190505050611951565b005b610737611b47565b005b610741611ca6565b604051808581526020018060200180602001848152602001838103835286818151815260200191508051906020019080838360005b83811015610791578082015181840152602081019050610776565b50505050905090810190601f1680156107be5780820380516001836020036101000a031916815260200191505b50838103825285818151815260200191508051906020019080838360005b838110156107f75780820151818401526020810190506107dc565b50505050905090810190601f1680156108245780820380516001836020036101000a031916815260200191505b50965050505050505060405180910390f35b600180600281111561084457fe5b60008054906101000a900460ff16600281111561085d57fe5b146108d0576040517f08c379a000000000000000000000000000000000000000000000000000000000815260040180806020018281038252601a8152602001807f4e6f742076616c696420696e2063757272656e7420737461676500000000000081525060200191505060405180910390fd5b33600760008273ffffffffffffffffffffffffffffffffffffffff1673ffffffffffffffffffffffffffffffffffffffff16815260200190815260200160002060000160029054906101000a900460ff1615801561097a5750600760008273ffffffffffffffffffffffffffffffffffffffff1673ffffffffffffffffffffffffffffffffffffffff16815260200190815260200160002060000160009054906101000a900460ff165b6109cf576040517f08c379a00000000000000000000000000000000000000000000000000000000081526004018080602001828103825260298152602001806121466029913960400191505060405180910390fd5b600683815481106109dc57fe5b906000526020600020906003020160020160008154809291906001019190505550600760003373ffffffffffffffffffffffffffffffffffffffff1673ffffffffffffffffffffffffffffffffffffffff16815260200190815260200160002060000160019054906101000a900460ff1615610a6657600360008154809291906001900391905055505b610a6e612011565b6001816000019015159081151581525050600081602001901515908115158152505060018160400190151590811515815250504281606001818152505080600760003373ffffffffffffffffffffffffffffffffffffffff1673ffffffffffffffffffffffffffffffffffffffff16815260200190815260200160002060008201518160000160006101000a81548160ff02191690831515021790555060208201518160000160016101000a81548160ff02191690831515021790555060408201518160000160026101000a81548160ff02191690831515021790555060608201518160010155905050600160008154809291906001019190505550600560149054906101000a900460ff168015610bb9575060026064600354600254030281610b9457fe5b04606460068681548110610ba457fe5b90600052602060002090600302016002015402115b15610be25760026000806101000a81548160ff02191690836002811115610bdc57fe5b02179055505b50505050565b600560009054906101000a900473ffffffffffffffffffffffffffffffffffffffff1673ffffffffffffffffffffffffffffffffffffffff163373ffffffffffffffffffffffffffffffffffffffff1614610cab576040517f08c379a000000000000000000000000000000000000000000000000000000000815260040180806020018281038252600c8152602001807f6973206e6f74206f776e6572000000000000000000000000000000000000000081525060200191505060405180910390fd5b6000806002811115610cb957fe5b60008054906101000a900460ff166002811115610cd257fe5b14610d45576040517f08c379a000000000000000000000000000000000000000000000000000000000815260040180806020018281038252601a8152602001807f4e6f742076616c696420696e2063757272656e7420737461676500000000000081525060200191505060405180910390fd5b8260068581548110610d5357fe5b90600052602060002090600302016000019080519060200190610d7792919061203f565b508160068581548110610d8657fe5b90600052602060002090600302016001019080519060200190610daa92919061203f565b5050505050565b600560009054906101000a900473ffffffffffffffffffffffffffffffffffffffff1673ffffffffffffffffffffffffffffffffffffffff163373ffffffffffffffffffffffffffffffffffffffff1614610e74576040517f08c379a000000000000000000000000000000000000000000000000000000000815260040180806020018281038252600c8152602001807f6973206e6f74206f776e6572000000000000000000000000000000000000000081525060200191505060405180910390fd5b6000806002811115610e8257fe5b60008054906101000a900460ff166002811115610e9b57fe5b14610f0e576040517f08c379a000000000000000000000000000000000000000000000000000000000815260040180806020018281038252601a8152602001807f4e6f742076616c696420696e2063757272656e7420737461676500000000000081525060200191505060405180910390fd5b60068281548110610f1b57fe5b906000526020600020906003020160008082016000610f3a91906120bf565b600182016000610f4a91906120bf565b600282016000905550505050565b600560009054906101000a900473ffffffffffffffffffffffffffffffffffffffff1673ffffffffffffffffffffffffffffffffffffffff163373ffffffffffffffffffffffffffffffffffffffff161461101b576040517f08c379a000000000000000000000000000000000000000000000000000000000815260040180806020018281038252600c8152602001807f6973206e6f74206f776e6572000000000000000000000000000000000000000081525060200191505060405180910390fd5b600080600281111561102957fe5b60008054906101000a900460ff16600281111561104257fe5b146110b5576040517f08c379a000000000000000000000000000000000000000000000000000000000815260040180806020018281038252601a8152602001807f4e6f742076616c696420696e2063757272656e7420737461676500000000000081525060200191505060405180910390fd5b60016000806101000a81548160ff021916908360028111156110d357fe5b021790555050565b60076020528060005260406000206000915090508060000160009054906101000a900460ff16908060000160019054906101000a900460ff16908060000160029054906101000a900460ff16908060010154905084565b600560009054906101000a900473ffffffffffffffffffffffffffffffffffffffff1673ffffffffffffffffffffffffffffffffffffffff163373ffffffffffffffffffffffffffffffffffffffff16146111f5576040517f08c379a000000000000000000000000000000000000000000000000000000000815260040180806020018281038252600c8152602001807f6973206e6f74206f776e6572000000000000000000000000000000000000000081525060200191505060405180910390fd5b600080600281111561120357fe5b60008054906101000a900460ff16600281111561121c57fe5b1461128f576040517f08c379a000000000000000000000000000000000000000000000000000000000815260040180806020018281038252601a8152602001807f4e6f742076616c696420696e2063757272656e7420737461676500000000000081525060200191505060405180910390fd5b611297612107565b838160000181905250828160200181905250600681908060018154018082558091505060019003906000526020600020906003020160009091909190915060008201518160000190805190602001906112f192919061203f565b50602082015181600101908051906020019061130e92919061203f565b5060408201518160020155505050505050565b60045481565b6000606080600060028081111561133a57fe5b60008054906101000a900460ff16600281111561135357fe5b14156114fa57846006868154811061136757fe5b90600052602060002090600302016000016006878154811061138557fe5b9060005260206000209060030201600101600688815481106113a357fe5b906000526020600020906003020160020154828054600181600116156101000203166002900480601f01602080910402602001604051908101604052809291908181526020018280546001816001161561010002031660029004801561144a5780601f1061141f5761010080835404028352916020019161144a565b820191906000526020600020905b81548152906001019060200180831161142d57829003601f168201915b50505050509250818054600181600116156101000203166002900480601f0160208091040260200160405190810160405280929190818152602001828054600181600116156101000203166002900480156114e65780601f106114bb576101008083540402835291602001916114e6565b820191906000526020600020905b8154815290600101906020018083116114c957829003601f168201915b50505050509150935093509350935061167a565b846006868154811061150857fe5b90600052602060002090600302016000016006878154811061152657fe5b90600052602060002090600302016001016000828054600181600116156101000203166002900480601f0160208091040260200160405190810160405280929190818152602001828054600181600116156101000203166002900480156115ce5780601f106115a3576101008083540402835291602001916115ce565b820191906000526020600020905b8154815290600101906020018083116115b157829003601f168201915b50505050509250818054600181600116156101000203166002900480601f01602080910402602001604051908101604052809291908181526020018280546001816001161561010002031660029004801561166a5780601f1061163f5761010080835404028352916020019161166a565b820191906000526020600020905b81548152906001019060200180831161164d57829003601f168201915b5050505050915093509350935093505b9193509193565b60025481565b600560149054906101000a900460ff1681565b60018060028111156116a857fe5b60008054906101000a900460ff1660028111156116c157fe5b14611734576040517f08c379a000000000000000000000000000000000000000000000000000000000815260040180806020018281038252601a8152602001807f4e6f742076616c696420696e2063757272656e7420737461676500000000000081525060200191505060405180910390fd5b33600760008273ffffffffffffffffffffffffffffffffffffffff1673ffffffffffffffffffffffffffffffffffffffff16815260200190815260200160002060000160029054906101000a900460ff161580156117de5750600760008273ffffffffffffffffffffffffffffffffffffffff1673ffffffffffffffffffffffffffffffffffffffff16815260200190815260200160002060000160009054906101000a900460ff165b611833576040517f08c379a00000000000000000000000000000000000000000000000000000000081526004018080602001828103825260298152602001806121466029913960400191505060405180910390fd5b6001600760003373ffffffffffffffffffffffffffffffffffffffff1673ffffffffffffffffffffffffffffffffffffffff16815260200190815260200160002060000160016101000a81548160ff0219169083151502179055506003600081548092919060010191905055506118a8611edd565b6118fd576040517f08c379a000000000000000000000000000000000000000000000000000000000815260040180806020018281038252602181526020018061216f6021913960400191505060405180910390fd5b5050565b60015481565b600560009054906101000a900473ffffffffffffffffffffffffffffffffffffffff1681565b60035481565b60008054906101000a900460ff1681565b6000600680549050905090565b600560009054906101000a900473ffffffffffffffffffffffffffffffffffffffff1673ffffffffffffffffffffffffffffffffffffffff163373ffffffffffffffffffffffffffffffffffffffff1614611a14576040517f08c379a000000000000000000000000000000000000000000000000000000000815260040180806020018281038252600c8152602001807f6973206e6f74206f776e6572000000000000000000000000000000000000000081525060200191505060405180910390fd5b600760008273ffffffffffffffffffffffffffffffffffffffff1673ffffffffffffffffffffffffffffffffffffffff16815260200190815260200160002060000160009054906101000a900460ff1615611ad7576040517f08c379a00000000000000000000000000000000000000000000000000000000081526004018080602001828103825260148152602001807f766f74657220616c72656164792065786973747300000000000000000000000081525060200191505060405180910390fd5b6001600760008373ffffffffffffffffffffffffffffffffffffffff1673ffffffffffffffffffffffffffffffffffffffff16815260200190815260200160002060000160006101000a81548160ff02191690831515021790555060026000815480929190600101919050555050565b600560009054906101000a900473ffffffffffffffffffffffffffffffffffffffff1673ffffffffffffffffffffffffffffffffffffffff163373ffffffffffffffffffffffffffffffffffffffff1614611c0a576040517f08c379a000000000000000000000000000000000000000000000000000000000815260040180806020018281038252600c8152602001807f6973206e6f74206f776e6572000000000000000000000000000000000000000081525060200191505060405180910390fd5b6004544211611c81576040517f08c379a000000000000000000000000000000000000000000000000000000000815260040180806020018281038252601f8152602001807f766f74696e672074696d65206973206e6f742066696e6973686564207965740081525060200191505060405180910390fd5b60026000806101000a81548160ff02191690836002811115611c9f57fe5b0217905550565b600060608060006002806002811115611cbb57fe5b60008054906101000a900460ff166002811115611cd457fe5b14611d47576040517f08c379a000000000000000000000000000000000000000000000000000000000815260040180806020018281038252601a8152602001807f4e6f742076616c696420696e2063757272656e7420737461676500000000000081525060200191505060405180910390fd5b600080611d52611f4c565b915091508160068381548110611d6457fe5b906000526020600020906003020160000160068481548110611d8257fe5b906000526020600020906003020160010183828054600181600116156101000203166002900480601f016020809104026020016040519081016040528092919081815260200182805460018160011615610100020316600290048015611e295780601f10611dfe57610100808354040283529160200191611e29565b820191906000526020600020905b815481529060010190602001808311611e0c57829003601f168201915b50505050509250818054600181600116156101000203166002900480601f016020809104026020016040519081016040528092919081815260200182805460018160011615610100020316600290048015611ec55780601f10611e9a57610100808354040283529160200191611ec5565b820191906000526020600020905b815481529060010190602001808311611ea857829003601f168201915b50505050509150965096509650965050505090919293565b6000600560149054906101000a900460ff1615611f45576000611efe611f4c565b91505060026064600354600254030281611f1457fe5b04606482021115611f435760026000806101000a81548160ff02191690836002811115611f3d57fe5b02179055505b505b6001905090565b60008060005b600680549050816fffffffffffffffffffffffffffffffff161015611fff57816006826fffffffffffffffffffffffffffffffff1681548110611f9157fe5b9060005260206000209060030201600201541115611ff2576006816fffffffffffffffffffffffffffffffff1681548110611fc857fe5b9060005260206000209060030201600201549150806fffffffffffffffffffffffffffffffff1692505b8080600101915050611f52565b506000811161200d57600080fd5b9091565b6040518060800160405280600015158152602001600015158152602001600015158152602001600081525090565b828054600181600116156101000203166002900490600052602060002090601f016020900481019282601f1061208057805160ff19168380011785556120ae565b828001600101855582156120ae579182015b828111156120ad578251825591602001919060010190612092565b5b5090506120bb9190612128565b5090565b50805460018160011615610100020316600290046000825580601f106120e55750612104565b601f0160209004906000526020600020908101906121039190612128565b5b50565b60405180606001604052806060815260200160608152602001600081525090565b5b80821115612141576000816000905550600101612129565b509056fe766f74657220646f6573206e6f74206578697374206f72206861766520766f746564206265666f7265636f756c64206e6f7420636f756e742072656163686564207468726573686f6c64a264697066735822122021fab6fac69396b4ea8e0c0f873afe85eaeed7ed14c4ce0df13232e5f60944fa64736f6c63430007000033566f746520656e642074696d652063616e206e6f7420626520696e207468652070617374a2646970667358221220f4f5f74a5a1b497f63cb8edbc987ded484938652f060e54c56ffcc8067e0dcf464736f6c63430007000033",
  "immutableReferences": {},
  "source": "// SPDX-License-Identifier: UNLICENSED\npragma solidity ^0.7.0;\n\nimport \"./Voting.sol\";\n\n/// @title Factory Contract for creating voting campaigns\ncontract VotingFactory {\n    //holds the info of each voting campaign\n    struct Campaign {\n        address contractAddress;\n\t\tstring name;\n    \tuint timestamp;\n\t}\n    address public owner;\n    uint public compaignsNum;\n    mapping(uint => Campaign) indexToCampaign;\n\n    constructor(){\n        owner = msg.sender;\n    }\n\n    modifier isOwner(){\n        require(msg.sender == owner);\n        _;\n    }\n\n    /// @notice Creates a new voting campaign\n    /// @param _name Name of the voting campaign\n    /// @param endTime Date in unix time when the vote will end\n    /// @param _owner Address of the owner of the voting campaign\n    /// @param thresholdVote bool true=threshold vote, false= not a threshold vote\n    function createNewCampaign(string memory _name, uint endTime, address _owner, bool thresholdVote) external isOwner() {\n        Campaign memory newVoteContract;\n\t\tnewVoteContract.contractAddress = address(new Voting(_owner, endTime, thresholdVote));\n        newVoteContract.name = _name;\n        newVoteContract.timestamp= block.timestamp;\n        indexToCampaign[compaignsNum + 1] = newVoteContract;\n        compaignsNum++;\n    }\n\n    /// @notice Get Campaign details by it's Id\n    /// @param id Id of the voting campaign\n    /// @return Campaign's Id\n    /// @return Campaign's contract Address\n    /// @return Campaign's Name\n    /// @return Campaign's creation timestamp\n    function getCampaign(uint id) external view returns(uint, address, string memory, uint) {\n        return (id, indexToCampaign[id].contractAddress, indexToCampaign[id].name, indexToCampaign[id].timestamp);\n    }\n}",
  "sourcePath": "/home/youssef/voting-smartcontracts/contracts/VotingFactory.sol",
  "compiler": {
    "name": "solc",
    "version": "0.7.0+commit.9e61f92b.Emscripten.clang"
  },
  "schemaVersion": "3.2.0",
  "updatedAt": "2020-09-30T09:17:34.610Z",
  "devdoc": {
    "kind": "dev",
    "methods": {
      "createNewCampaign(string,uint256,address,bool)": {
        "params": {
          "_name": "Name of the voting campaign",
          "_owner": "Address of the owner of the voting campaign",
          "endTime": "Date in unix time when the vote will end",
          "thresholdVote": "bool true=threshold vote, false= not a threshold vote"
        }
      },
      "getCampaign(uint256)": {
        "params": {
          "id": "Id of the voting campaign"
        },
        "returns": {
          "_0": "Campaign's Id",
          "_1": "Campaign's contract Address",
          "_2": "Campaign's Name",
          "_3": "Campaign's creation timestamp"
        }
      }
    },
    "title": "Factory Contract for creating voting campaigns",
    "version": 1
  },
  "userdoc": {
    "kind": "user",
    "methods": {
      "createNewCampaign(string,uint256,address,bool)": {
        "notice": "Creates a new voting campaign"
      },
      "getCampaign(uint256)": {
        "notice": "Get Campaign details by it's Id"
      }
    },
    "version": 1
  }
}