{
  "contractName": "Voting",
  "abi": [
    {
      "inputs": [
        {
          "internalType": "uint256",
          "name": "_targetVotes",
          "type": "uint256"
        },
        {
          "internalType": "address",
          "name": "_owner",
          "type": "address"
        }
      ],
      "stateMutability": "nonpayable",
      "type": "constructor"
    },
    {
      "inputs": [],
      "name": "candidatesNum",
      "outputs": [
        {
          "internalType": "uint256",
          "name": "",
          "type": "uint256"
        }
      ],
      "stateMutability": "view",
      "type": "function"
    },
    {
      "inputs": [],
      "name": "isVoteStarted",
      "outputs": [
        {
          "internalType": "bool",
          "name": "",
          "type": "bool"
        }
      ],
      "stateMutability": "view",
      "type": "function"
    },
    {
      "inputs": [],
      "name": "owner",
      "outputs": [
        {
          "internalType": "address",
          "name": "",
          "type": "address"
        }
      ],
      "stateMutability": "view",
      "type": "function"
    },
    {
      "inputs": [],
      "name": "targetTotalVotes",
      "outputs": [
        {
          "internalType": "uint256",
          "name": "",
          "type": "uint256"
        }
      ],
      "stateMutability": "view",
      "type": "function"
    },
    {
      "inputs": [],
      "name": "votesNum",
      "outputs": [
        {
          "internalType": "uint256",
          "name": "",
          "type": "uint256"
        }
      ],
      "stateMutability": "view",
      "type": "function"
    },
    {
      "inputs": [
        {
          "internalType": "string",
          "name": "_name",
          "type": "string"
        },
        {
          "internalType": "string",
          "name": "_desc",
          "type": "string"
        }
      ],
      "name": "addCandidate",
      "outputs": [],
      "stateMutability": "nonpayable",
      "type": "function"
    },
    {
      "inputs": [
        {
          "internalType": "uint256",
          "name": "id",
          "type": "uint256"
        },
        {
          "internalType": "string",
          "name": "_name",
          "type": "string"
        },
        {
          "internalType": "string",
          "name": "_desc",
          "type": "string"
        }
      ],
      "name": "editCandidate",
      "outputs": [],
      "stateMutability": "nonpayable",
      "type": "function"
    },
    {
      "inputs": [
        {
          "internalType": "uint256",
          "name": "id",
          "type": "uint256"
        }
      ],
      "name": "deleteCandidate",
      "outputs": [],
      "stateMutability": "nonpayable",
      "type": "function"
    },
    {
      "inputs": [],
      "name": "startVoting",
      "outputs": [],
      "stateMutability": "nonpayable",
      "type": "function"
    },
    {
      "inputs": [],
      "name": "stopVoting",
      "outputs": [],
      "stateMutability": "nonpayable",
      "type": "function"
    },
    {
      "inputs": [
        {
          "internalType": "uint256",
          "name": "id",
          "type": "uint256"
        }
      ],
      "name": "vote",
      "outputs": [],
      "stateMutability": "nonpayable",
      "type": "function"
    },
    {
      "inputs": [
        {
          "internalType": "uint256",
          "name": "id",
          "type": "uint256"
        }
      ],
      "name": "getCandidate",
      "outputs": [
        {
          "internalType": "uint256",
          "name": "",
          "type": "uint256"
        },
        {
          "internalType": "string",
          "name": "",
          "type": "string"
        },
        {
          "internalType": "string",
          "name": "",
          "type": "string"
        },
        {
          "internalType": "uint256",
          "name": "",
          "type": "uint256"
        }
      ],
      "stateMutability": "view",
      "type": "function"
    },
    {
      "inputs": [
        {
          "internalType": "address",
          "name": "_voter",
          "type": "address"
        }
      ],
      "name": "getVoter",
      "outputs": [
        {
          "internalType": "address",
          "name": "",
          "type": "address"
        },
        {
          "internalType": "uint256",
          "name": "",
          "type": "uint256"
        },
        {
          "internalType": "uint256",
          "name": "",
          "type": "uint256"
        }
      ],
      "stateMutability": "view",
      "type": "function"
    }
  ],
  "bytecode": "0x608060405234801561001057600080fd5b506040516116923803806116928339818101604052604081101561003357600080fd5b8101908080519060200190929190805190602001909291905050508160008190555080600360006101000a81548173ffffffffffffffffffffffffffffffffffffffff021916908373ffffffffffffffffffffffffffffffffffffffff16021790555050506115eb806100a76000396000f3fe608060405234801561001057600080fd5b50600436106100cf5760003560e01c806373c933161161008c578063ba7faf4911610066578063ba7faf4914610579578063d4f50f9814610599578063e088733514610615578063fab2f86b14610633576100cf565b806373c9331614610509578063744239b0146105275780638da5cb5b14610545576100cf565b80630121b93f146100d45780630c3573e8146101025780631e620cd41461025e5780631ec6b60a1461028c57806326541b561461029657806335b8e820146103e8575b600080fd5b610100600480360360208110156100ea57600080fd5b810190808035906020019092919050505061063d565b005b61025c6004803603606081101561011857600080fd5b81019080803590602001909291908035906020019064010000000081111561013f57600080fd5b82018360208201111561015157600080fd5b8035906020019184600183028401116401000000008311171561017357600080fd5b91908080601f016020809104026020016040519081016040528093929190818152602001838380828437600081840152601f19601f820116905080830192505050505050509192919290803590602001906401000000008111156101d657600080fd5b8201836020820111156101e857600080fd5b8035906020019184600183028401116401000000008311171561020a57600080fd5b91908080601f016020809104026020016040519081016040528093929190818152602001838380828437600081840152601f19601f820116905080830192505050505050509192919290505050610920565b005b61028a6004803603602081101561027457600080fd5b8101908080359060200190929190505050610afe565b005b610294610ce9565b005b6103e6600480360360408110156102ac57600080fd5b81019080803590602001906401000000008111156102c957600080fd5b8201836020820111156102db57600080fd5b803590602001918460018302840111640100000000831117156102fd57600080fd5b91908080601f016020809104026020016040519081016040528093929190818152602001838380828437600081840152601f19601f8201169050808301925050505050505091929192908035906020019064010000000081111561036057600080fd5b82018360208201111561037257600080fd5b8035906020019184600183028401116401000000008311171561039457600080fd5b91908080601f016020809104026020016040519081016040528093929190818152602001838380828437600081840152601f19601f820116905080830192505050505050509192919290505050610e4c565b005b610414600480360360208110156103fe57600080fd5b8101908080359060200190929190505050610ff9565b604051808581526020018060200180602001848152602001838103835286818151815260200191508051906020019080838360005b83811015610464578082015181840152602081019050610449565b50505050905090810190601f1680156104915780820380516001836020036101000a031916815260200191505b50838103825285818151815260200191508051906020019080838360005b838110156104ca5780820151818401526020810190506104af565b50505050905090810190601f1680156104f75780820380516001836020036101000a031916815260200191505b50965050505050505060405180910390f35b610511611223565b6040518082815260200191505060405180910390f35b61052f611229565b6040518082815260200191505060405180910390f35b61054d61122f565b604051808273ffffffffffffffffffffffffffffffffffffffff16815260200191505060405180910390f35b610581611255565b60405180821515815260200191505060405180910390f35b6105db600480360360208110156105af57600080fd5b81019080803573ffffffffffffffffffffffffffffffffffffffff169060200190929190505050611268565b604051808473ffffffffffffffffffffffffffffffffffffffff168152602001838152602001828152602001935050505060405180910390f35b61061d611301565b6040518082815260200191505060405180910390f35b61063b611307565b005b600360149054906101000a900460ff166106bf576040517f08c379a00000000000000000000000000000000000000000000000000000000081526004018080602001828103825260178152602001807f766f7465206973206e6f7420696e2070726f677265737300000000000000000081525060200191505060405180910390fd5b6001546000541161071b576040517f08c379a00000000000000000000000000000000000000000000000000000000081526004018080602001828103825260238152602001806115936023913960400191505060405180910390fd5b336000600560008373ffffffffffffffffffffffffffffffffffffffff1673ffffffffffffffffffffffffffffffffffffffff16815260200190815260200160002060000154146107d4576040517f08c379a00000000000000000000000000000000000000000000000000000000081526004018080602001828103825260148152602001807f796f75206861766520766f7465206265666f726500000000000000000000000081525060200191505060405180910390fd5b816004600082815260200190815260200160002060000160009054906101000a900460ff1661086b576040517f08c379a00000000000000000000000000000000000000000000000000000000081526004018080602001828103825260188152602001807f43616e64696461746520646f6573206e6f74206578697374000000000000000081525060200191505060405180910390fd5b6004600084815260200190815260200160002060030160008154809291906001019190505550610899611469565b60018054018160000181815250504281602001818152505080600560003373ffffffffffffffffffffffffffffffffffffffff1673ffffffffffffffffffffffffffffffffffffffff168152602001908152602001600020600082015181600001556020820151816001015590505060016000815480929190600101919050555050505050565b600360009054906101000a900473ffffffffffffffffffffffffffffffffffffffff1673ffffffffffffffffffffffffffffffffffffffff163373ffffffffffffffffffffffffffffffffffffffff16146109e3576040517f08c379a000000000000000000000000000000000000000000000000000000000815260040180806020018281038252600c8152602001807f6973206e6f74206f776e6572000000000000000000000000000000000000000081525060200191505060405180910390fd5b600360149054906101000a900460ff16158015610a0257506000600154145b610a0b57600080fd5b826004600082815260200190815260200160002060000160009054906101000a900460ff16610aa2576040517f08c379a00000000000000000000000000000000000000000000000000000000081526004018080602001828103825260188152602001807f43616e64696461746520646f6573206e6f74206578697374000000000000000081525060200191505060405180910390fd5b82600460008681526020019081526020016000206001019080519060200190610acc929190611483565b5081600460008681526020019081526020016000206002019080519060200190610af7929190611483565b5050505050565b600360009054906101000a900473ffffffffffffffffffffffffffffffffffffffff1673ffffffffffffffffffffffffffffffffffffffff163373ffffffffffffffffffffffffffffffffffffffff1614610bc1576040517f08c379a000000000000000000000000000000000000000000000000000000000815260040180806020018281038252600c8152602001807f6973206e6f74206f776e6572000000000000000000000000000000000000000081525060200191505060405180910390fd5b600360149054906101000a900460ff16158015610be057506000600154145b610be957600080fd5b806004600082815260200190815260200160002060000160009054906101000a900460ff16610c80576040517f08c379a00000000000000000000000000000000000000000000000000000000081526004018080602001828103825260188152602001807f43616e64696461746520646f6573206e6f74206578697374000000000000000081525060200191505060405180910390fd5b60046000838152602001908152602001600020600080820160006101000a81549060ff0219169055600182016000610cb89190611503565b600282016000610cc89190611503565b60038201600090555050600260008154809291906001900391905055505050565b600360009054906101000a900473ffffffffffffffffffffffffffffffffffffffff1673ffffffffffffffffffffffffffffffffffffffff163373ffffffffffffffffffffffffffffffffffffffff1614610dac576040517f08c379a000000000000000000000000000000000000000000000000000000000815260040180806020018281038252600c8152602001807f6973206e6f74206f776e6572000000000000000000000000000000000000000081525060200191505060405180910390fd5b600360149054906101000a900460ff1615610e2f576040517f08c379a00000000000000000000000000000000000000000000000000000000081526004018080602001828103825260138152602001807f766f746520697320696e2070726f67726573730000000000000000000000000081525060200191505060405180910390fd5b6001600360146101000a81548160ff021916908315150217905550565b600360009054906101000a900473ffffffffffffffffffffffffffffffffffffffff1673ffffffffffffffffffffffffffffffffffffffff163373ffffffffffffffffffffffffffffffffffffffff1614610f0f576040517f08c379a000000000000000000000000000000000000000000000000000000000815260040180806020018281038252600c8152602001807f6973206e6f74206f776e6572000000000000000000000000000000000000000081525060200191505060405180910390fd5b600360149054906101000a900460ff16158015610f2e57506000600154145b610f3757600080fd5b610f3f61154b565b60018160000190151590811515815250508281602001819052508181604001819052508060046000600160025401815260200190815260200160002060008201518160000160006101000a81548160ff0219169083151502179055506020820151816001019080519060200190610fb7929190611483565b506040820151816002019080519060200190610fd4929190611483565b5060608201518160030155905050600260008154809291906001019190505550505050565b60006060806000846004600082815260200190815260200160002060000160009054906101000a900460ff16611097576040517f08c379a00000000000000000000000000000000000000000000000000000000081526004018080602001828103825260188152602001807f43616e64696461746520646f6573206e6f74206578697374000000000000000081525060200191505060405180910390fd5b856004600088815260200190815260200160002060010160046000898152602001908152602001600020600201600460008a815260200190815260200160002060030154828054600181600116156101000203166002900480601f0160208091040260200160405190810160405280929190818152602001828054600181600116156101000203166002900480156111705780601f1061114557610100808354040283529160200191611170565b820191906000526020600020905b81548152906001019060200180831161115357829003601f168201915b50505050509250818054600181600116156101000203166002900480601f01602080910402602001604051908101604052809291908181526020018280546001816001161561010002031660029004801561120c5780601f106111e15761010080835404028352916020019161120c565b820191906000526020600020905b8154815290600101906020018083116111ef57829003601f168201915b505050505091509450945094509450509193509193565b60015481565b60005481565b600360009054906101000a900473ffffffffffffffffffffffffffffffffffffffff1681565b600360149054906101000a900460ff1681565b600080600083600560008673ffffffffffffffffffffffffffffffffffffffff1673ffffffffffffffffffffffffffffffffffffffff16815260200190815260200160002060000154600560008773ffffffffffffffffffffffffffffffffffffffff1673ffffffffffffffffffffffffffffffffffffffff168152602001908152602001600020600101549250925092509193909250565b60025481565b600360009054906101000a900473ffffffffffffffffffffffffffffffffffffffff1673ffffffffffffffffffffffffffffffffffffffff163373ffffffffffffffffffffffffffffffffffffffff16146113ca576040517f08c379a000000000000000000000000000000000000000000000000000000000815260040180806020018281038252600c8152602001807f6973206e6f74206f776e6572000000000000000000000000000000000000000081525060200191505060405180910390fd5b600360149054906101000a900460ff1661144c576040517f08c379a00000000000000000000000000000000000000000000000000000000081526004018080602001828103825260178152602001807f766f7465206973206e6f7420696e2070726f677265737300000000000000000081525060200191505060405180910390fd5b6000600360146101000a81548160ff021916908315150217905550565b604051806040016040528060008152602001600081525090565b828054600181600116156101000203166002900490600052602060002090601f016020900481019282601f106114c457805160ff19168380011785556114f2565b828001600101855582156114f2579182015b828111156114f15782518255916020019190600101906114d6565b5b5090506114ff9190611575565b5090565b50805460018160011615610100020316600290046000825580601f106115295750611548565b601f0160209004906000526020600020908101906115479190611575565b5b50565b60405180608001604052806000151581526020016060815260200160608152602001600081525090565b5b8082111561158e576000816000905550600101611576565b509056fe54617267657420546f74616c20566f74657320686173206265656e2072656163686564a2646970667358221220c4346d4e31ab6d6facf9a519a91b449cc94e721d2b88c8ff4fa7e5b332b5f3c164736f6c63430007000033",
  "immutableReferences": {},
  "source": "// SPDX-License-Identifier: UNLICENSED\npragma solidity ^0.7.0;\n\n/// @author Youssef Alaa\n/// @title Voting contract for managing each voting process\n/// @dev This contract is not deployed Initially but is created by VotingFactory\ncontract Voting{\n    //holds the info of each Candidate that will be voted for\n    struct Candidate{\n        bool exists;\n        string name;\n        string desc;\n        uint voteNum;\n    }\n    //For registring Votes\n    struct Voter {\n        uint id ;\n    \tuint timestamp;\n    }\n    \n    uint public targetTotalVotes;\n    uint public votesNum;\n    uint public candidatesNum;\n    address public owner;\n    bool public isVoteStarted;\n    \n    mapping(uint => Candidate) candidates;\n    mapping(address => Voter) voterToDetails;\n\n    constructor(uint _targetVotes, address _owner) {\n        targetTotalVotes = _targetVotes;\n        owner = _owner;\n    }\n    \n    modifier isOwner(){\n        require(msg.sender == owner , \"is not owner\");\n        _;\n    }\n    modifier voteStarted(){\n        require(isVoteStarted, \"vote is not in progress\");\n        _;  \n    }\n    modifier voteStoped(){\n        require(!isVoteStarted, \"vote is in progress\");\n        _;\n    }\n    modifier voteInit(){\n        require(!isVoteStarted && votesNum == 0);\n        _;\n    }\n    modifier isNewVoter(address newVoter){\n        require(voterToDetails[newVoter].id == 0, \"you have vote before\");\n        _;\n    }\n    modifier isVoteNotComplete(){\n        require(targetTotalVotes > votesNum, \"Target Total Votes has been reached\");\n        _;\n    }\n    modifier isCandidate(uint id){\n        require(candidates[id].exists, \"Candidate does not exist\");\n        _;\n    }\n    \n    /// @notice Add a new candidate to be voted for\n    /// @dev Function should be called by owner and before the voting process starts\n    /// @param _name Name of Candidate\n    /// @param _desc Candidate's Description\n    function addCandidate(string memory _name, string memory _desc) external isOwner() voteInit() {\n        Candidate memory _candidate;\n        _candidate.exists = true;\n        _candidate.name = _name;\n        _candidate.desc = _desc;\n        candidates[candidatesNum + 1] = _candidate;\n        candidatesNum ++;\n    }\n    \n    /// @notice Edit candidate's name and description\n    /// @dev Function should be called by owner and before the voting process starts\n    /// @param id ID of existing Candidate\n    /// @param _name Changed name of Candidate\n    /// @param _desc Changed candidate's description\n    function editCandidate(uint id,string memory _name, string memory _desc) external isOwner() voteInit() isCandidate(id) {\n        candidates[id].name = _name;\n        candidates[id].desc = _desc;\n    }\n    \n    /// @notice Delete candidate by Id\n    /// @dev Function should be called by owner and before the voting process starts\n    /// @param id ID of existing Candidate\n    function deleteCandidate(uint id) external isOwner() voteInit() isCandidate(id) {\n        delete(candidates[id]);\n        candidatesNum --;\n    }\n    \n    /// @notice Allow voters to start voting\n    /// @dev Function should be called by owner and while voting is stopped\n    function startVoting() external isOwner() voteStoped() {\n        isVoteStarted = true;\n    }\n    \n    /// @notice Stops the voting process\n    /// @dev Function should be called by owner and while voting has started\n    function stopVoting() external isOwner() voteStarted() {\n        isVoteStarted = false;\n    }\n    \n    /// @notice Vote for a candidate\n    /** @dev Function should be called after the voting process has started, targetTotalVotes has not been reached,\n    The voter hasn't voted before and is voting to an existing candidate */\n    /// @param id ID of existing Candidate\n    function vote(uint id) external voteStarted() isVoteNotComplete() isNewVoter(msg.sender) isCandidate(id) {\n        candidates[id].voteNum ++;\n        // add new voter\n        Voter memory _voter;\n        _voter.id = votesNum + 1;\n        _voter.timestamp = block.timestamp;\n        voterToDetails[msg.sender] = _voter;\n        // increment voternum\n        votesNum ++;\n    }\n    \n    /// @notice Get Candidate details by it's Id\n    /// @param id Id of the Candidate\n    /// @return Candidate's ID\n    /// @return Candidate's name\n    /// @return Candidate's description\n    /// @return Number of votes that has been voted for this candidate.\n    function getCandidate(uint id) external view isCandidate(id) returns(uint, string memory, string memory, uint) {\n        return(id, candidates[id].name, candidates[id].desc, candidates[id].voteNum);\n    }\n    \n    /// @notice Get voter's info by his address\n    /// @param _voter Voter's address\n    /// @return Voter's address\n    /// @return Voter's id, 0 = hasn't voted, 1 = has voted\n    /// @return Timestamp of when he has voted if he has already voted\n    function getVoter(address _voter) external view returns (address, uint, uint)  {\n        return(_voter, voterToDetails[_voter].id, voterToDetails[_voter].timestamp);\n    }\n}",
  "sourcePath": "/home/youssef/voting-smartcontracts/contracts/Voting.sol",
  "compiler": {
    "name": "solc",
    "version": "0.7.0+commit.9e61f92b.Emscripten.clang"
  },
  "schemaVersion": "3.2.0",
  "updatedAt": "2020-08-26T12:35:14.733Z",
  "devdoc": {
    "author": "Youssef Alaa",
    "details": "This contract is not deployed Initially but is created by VotingFactory",
    "kind": "dev",
    "methods": {
      "addCandidate(string,string)": {
        "details": "Function should be called by owner and before the voting process starts",
        "params": {
          "_desc": "Candidate's Description",
          "_name": "Name of Candidate"
        }
      },
      "deleteCandidate(uint256)": {
        "details": "Function should be called by owner and before the voting process starts",
        "params": {
          "id": "ID of existing Candidate"
        }
      },
      "editCandidate(uint256,string,string)": {
        "details": "Function should be called by owner and before the voting process starts",
        "params": {
          "_desc": "Changed candidate's description",
          "_name": "Changed name of Candidate",
          "id": "ID of existing Candidate"
        }
      },
      "getCandidate(uint256)": {
        "params": {
          "id": "Id of the Candidate"
        },
        "returns": {
          "_0": "Candidate's ID",
          "_1": "Candidate's name",
          "_2": "Candidate's description",
          "_3": "Number of votes that has been voted for this candidate."
        }
      },
      "getVoter(address)": {
        "params": {
          "_voter": "Voter's address"
        },
        "returns": {
          "_0": "Voter's address",
          "_1": "Voter's id, 0 = hasn't voted, 1 = has voted",
          "_2": "Timestamp of when he has voted if he has already voted"
        }
      },
      "startVoting()": {
        "details": "Function should be called by owner and while voting is stopped"
      },
      "stopVoting()": {
        "details": "Function should be called by owner and while voting has started"
      },
      "vote(uint256)": {
        "params": {
          "id": "ID of existing Candidate"
        }
      }
    },
    "title": "Voting contract for managing each voting process",
    "version": 1
  },
  "userdoc": {
    "kind": "user",
    "methods": {
      "addCandidate(string,string)": {
        "notice": "Add a new candidate to be voted for"
      },
      "deleteCandidate(uint256)": {
        "notice": "Delete candidate by Id"
      },
      "editCandidate(uint256,string,string)": {
        "notice": "Edit candidate's name and description"
      },
      "getCandidate(uint256)": {
        "notice": "Get Candidate details by it's Id"
      },
      "getVoter(address)": {
        "notice": "Get voter's info by his address"
      },
      "startVoting()": {
        "notice": "Allow voters to start voting"
      },
      "stopVoting()": {
        "notice": "Stops the voting process"
      }
    },
    "version": 1
  }
}