{
  "contractName": "VotingFactory",
  "abi": [
    {
      "inputs": [],
      "stateMutability": "nonpayable",
      "type": "constructor"
    },
    {
      "inputs": [],
      "name": "compaignsNum",
      "outputs": [
        {
          "internalType": "uint256",
          "name": "",
          "type": "uint256"
        }
      ],
      "stateMutability": "view",
      "type": "function"
    },
    {
      "inputs": [],
      "name": "owner",
      "outputs": [
        {
          "internalType": "address",
          "name": "",
          "type": "address"
        }
      ],
      "stateMutability": "view",
      "type": "function"
    },
    {
      "inputs": [
        {
          "internalType": "string",
          "name": "_name",
          "type": "string"
        },
        {
          "internalType": "uint256",
          "name": "endTime",
          "type": "uint256"
        },
        {
          "internalType": "address",
          "name": "_owner",
          "type": "address"
        },
        {
          "internalType": "bool",
          "name": "thresholdVote",
          "type": "bool"
        }
      ],
      "name": "createNewCampaign",
      "outputs": [],
      "stateMutability": "nonpayable",
      "type": "function"
    },
    {
      "inputs": [
        {
          "internalType": "uint256",
          "name": "id",
          "type": "uint256"
        }
      ],
      "name": "getCampaign",
      "outputs": [
        {
          "internalType": "uint256",
          "name": "",
          "type": "uint256"
        },
        {
          "internalType": "address",
          "name": "",
          "type": "address"
        },
        {
          "internalType": "string",
          "name": "",
          "type": "string"
        },
        {
          "internalType": "uint256",
          "name": "",
          "type": "uint256"
        }
      ],
      "stateMutability": "view",
      "type": "function"
    }
  ],
  "bytecode": "0x608060405234801561001057600080fd5b50336000806101000a81548173ffffffffffffffffffffffffffffffffffffffff021916908373ffffffffffffffffffffffffffffffffffffffff16021790555061279f806100606000396000f3fe608060405234801561001057600080fd5b506004361061004c5760003560e01c806347347b06146100515780635598f8cc1461006f5780638da5cb5b14610141578063eca1ae7b14610175575b600080fd5b610059610266565b6040518082815260200191505060405180910390f35b61009b6004803603602081101561008557600080fd5b810190808035906020019092919050505061026c565b604051808581526020018473ffffffffffffffffffffffffffffffffffffffff16815260200180602001838152602001828103825284818151815260200191508051906020019080838360005b838110156101035780820151818401526020810190506100e8565b50505050905090810190601f1680156101305780820380516001836020036101000a031916815260200191505b509550505050505060405180910390f35b610149610383565b604051808273ffffffffffffffffffffffffffffffffffffffff16815260200191505060405180910390f35b6102646004803603608081101561018b57600080fd5b81019080803590602001906401000000008111156101a857600080fd5b8201836020820111156101ba57600080fd5b803590602001918460018302840111640100000000831117156101dc57600080fd5b91908080601f016020809104026020016040519081016040528093929190818152602001838380828437600081840152601f19601f82011690508083019250505050505050919291929080359060200190929190803573ffffffffffffffffffffffffffffffffffffffff1690602001909291908035151590602001909291905050506103a7565b005b60015481565b60008060606000846002600087815260200190815260200160002060000160009054906101000a900473ffffffffffffffffffffffffffffffffffffffff16600260008881526020019081526020016000206001016002600089815260200190815260200160002060020154818054600181600116156101000203166002900480601f01602080910402602001604051908101604052809291908181526020018280546001816001161561010002031660029004801561036d5780601f106103425761010080835404028352916020019161036d565b820191906000526020600020905b81548152906001019060200180831161035057829003601f168201915b5050505050915093509350935093509193509193565b60008054906101000a900473ffffffffffffffffffffffffffffffffffffffff1681565b60008054906101000a900473ffffffffffffffffffffffffffffffffffffffff1673ffffffffffffffffffffffffffffffffffffffff163373ffffffffffffffffffffffffffffffffffffffff16146103ff57600080fd5b61040761054f565b82848360405161041690610586565b808473ffffffffffffffffffffffffffffffffffffffff16815260200183815260200182151581526020019350505050604051809103906000f080158015610462573d6000803e3d6000fd5b50816000019073ffffffffffffffffffffffffffffffffffffffff16908173ffffffffffffffffffffffffffffffffffffffff16815250508481602001819052504281604001818152505080600260006001805401815260200190815260200160002060008201518160000160006101000a81548173ffffffffffffffffffffffffffffffffffffffff021916908373ffffffffffffffffffffffffffffffffffffffff1602179055506020820151816001019080519060200190610528929190610593565b50604082015181600201559050506001600081548092919060010191905055505050505050565b6040518060600160405280600073ffffffffffffffffffffffffffffffffffffffff16815260200160608152602001600081525090565b6121398061063183390190565b828054600181600116156101000203166002900490600052602060002090601f016020900481019282601f106105d457805160ff1916838001178555610602565b82800160010185558215610602579182015b828111156106015782518255916020019190600101906105e6565b5b50905061060f9190610613565b5090565b5b8082111561062c576000816000905550600101610614565b509056fe608060405234801561001057600080fd5b506040516121393803806121398339818101604052606081101561003357600080fd5b810190808051906020019092919080519060200190929190805190602001909291905050504282116100b0576040517f08c379a00000000000000000000000000000000000000000000000000000000081526004018080602001828103825260248152602001806121156024913960400191505060405180910390fd5b82600560006101000a81548173ffffffffffffffffffffffffffffffffffffffff021916908373ffffffffffffffffffffffffffffffffffffffff16021790555060008060006101000a81548160ff0219169083600281111561010f57fe5b02179055508160048190555080600560146101000a81548160ff021916908315150217905550505050611fce806101476000396000f3fe608060405234801561001057600080fd5b506004361061010b5760003560e01c80633846c183116100a25780638da5cb5b116100715780638da5cb5b1461063c578063ac5d1f1014610670578063c040e6b81461068e578063e0887335146106b7578063f4ab9adf146106d55761010b565b80633846c183146105d6578063555a218e146105f45780635e98e4c71461061457806373c933161461061e5761010b565b80632324770e116100de5780632324770e146102d257806326541b56146103455780633197cbb61461049757806335b8e820146104b55761010b565b80630121b93f146101105780630c3573e81461013e5780631e620cd41461029a5780631ec6b60a146102c8575b600080fd5b61013c6004803603602081101561012657600080fd5b8101908080359060200190929190505050610719565b005b6102986004803603606081101561015457600080fd5b81019080803590602001909291908035906020019064010000000081111561017b57600080fd5b82018360208201111561018d57600080fd5b803590602001918460018302840111640100000000831117156101af57600080fd5b91908080601f016020809104026020016040519081016040528093929190818152602001838380828437600081840152601f19601f8201169050808301925050505050505091929192908035906020019064010000000081111561021257600080fd5b82018360208201111561022457600080fd5b8035906020019184600183028401116401000000008311171561024657600080fd5b91908080601f016020809104026020016040519081016040528093929190818152602001838380828437600081840152601f19601f820116905080830192505050505050509192919290505050610bcc565b005b6102c6600480360360208110156102b057600080fd5b8101908080359060200190929190505050610e63565b005b6102d06110ec565b005b610314600480360360208110156102e857600080fd5b81019080803573ffffffffffffffffffffffffffffffffffffffff16906020019092919050505061129d565b6040518085151581526020018415158152602001831515815260200182815260200194505050505060405180910390f35b6104956004803603604081101561035b57600080fd5b810190808035906020019064010000000081111561037857600080fd5b82018360208201111561038a57600080fd5b803590602001918460018302840111640100000000831117156103ac57600080fd5b91908080601f016020809104026020016040519081016040528093929190818152602001838380828437600081840152601f19601f8201169050808301925050505050505091929192908035906020019064010000000081111561040f57600080fd5b82018360208201111561042157600080fd5b8035906020019184600183028401116401000000008311171561044357600080fd5b91908080601f016020809104026020016040519081016040528093929190818152602001838380828437600081840152601f19601f8201169050808301925050505050505091929192905050506112f4565b005b61049f611542565b6040518082815260200191505060405180910390f35b6104e1600480360360208110156104cb57600080fd5b8101908080359060200190929190505050611548565b604051808581526020018060200180602001848152602001838103835286818151815260200191508051906020019080838360005b83811015610531578082015181840152602081019050610516565b50505050905090810190601f16801561055e5780820380516001836020036101000a031916815260200191505b50838103825285818151815260200191508051906020019080838360005b8381101561059757808201518184015260208101905061057c565b50505050905090810190601f1680156105c45780820380516001836020036101000a031916815260200191505b50965050505050505060405180910390f35b6105de611942565b6040518082815260200191505060405180910390f35b6105fc611948565b60405180821515815260200191505060405180910390f35b61061c61195b565b005b610626611b93565b6040518082815260200191505060405180910390f35b610644611b99565b604051808273ffffffffffffffffffffffffffffffffffffffff16815260200191505060405180910390f35b610678611bbf565b6040518082815260200191505060405180910390f35b610696611bc5565b604051808260028111156106a657fe5b815260200191505060405180910390f35b6106bf611bd6565b6040518082815260200191505060405180910390f35b610717600480360360208110156106eb57600080fd5b81019080803573ffffffffffffffffffffffffffffffffffffffff169060200190929190505050611be3565b005b60016004544211156107495760026000806101000a81548160ff0219169083600281111561074357fe5b02179055505b80600281111561075557fe5b60008054906101000a900460ff16600281111561076e57fe5b146107e1576040517f08c379a000000000000000000000000000000000000000000000000000000000815260040180806020018281038252601b8152602001807f4e6f742076616c696420696e2063757272656e742073746167652e000000000081525060200191505060405180910390fd5b33600760008273ffffffffffffffffffffffffffffffffffffffff1673ffffffffffffffffffffffffffffffffffffffff16815260200190815260200160002060000160029054906101000a900460ff1615801561088b5750600760008273ffffffffffffffffffffffffffffffffffffffff1673ffffffffffffffffffffffffffffffffffffffff16815260200190815260200160002060000160009054906101000a900460ff165b6108e0576040517f08c379a0000000000000000000000000000000000000000000000000000000008152600401808060200182810382526029815260200180611f706029913960400191505060405180910390fd5b82600681815481106108ee57fe5b906000526020600020906004020160000160009054906101000a900460ff1661097f576040517f08c379a00000000000000000000000000000000000000000000000000000000081526004018080602001828103825260188152602001807f43616e64696461746520646f6573206e6f74206578697374000000000000000081525060200191505060405180910390fd5b6006848154811061098c57fe5b906000526020600020906004020160030160008154809291906001019190505550600760003373ffffffffffffffffffffffffffffffffffffffff1673ffffffffffffffffffffffffffffffffffffffff16815260200190815260200160002060000160019054906101000a900460ff1615610a71576000600760003373ffffffffffffffffffffffffffffffffffffffff1673ffffffffffffffffffffffffffffffffffffffff16815260200190815260200160002060000160016101000a81548160ff021916908315150217905550600360008154809291906001900391905055505b610a79611e32565b60018160400190151590811515815250504281606001818152505080600760003373ffffffffffffffffffffffffffffffffffffffff1673ffffffffffffffffffffffffffffffffffffffff16815260200190815260200160002060008201518160000160006101000a81548160ff02191690831515021790555060208201518160000160016101000a81548160ff02191690831515021790555060408201518160000160026101000a81548160ff02191690831515021790555060608201518160010155905050600160008154809291906001019190505550600560149054906101000a900460ff168015610b9c575060026003546002540381610b7a57fe5b0460068681548110610b8857fe5b906000526020600020906004020160030154115b15610bc55760026000806101000a81548160ff02191690836002811115610bbf57fe5b02179055505b5050505050565b600560009054906101000a900473ffffffffffffffffffffffffffffffffffffffff1673ffffffffffffffffffffffffffffffffffffffff163373ffffffffffffffffffffffffffffffffffffffff1614610c8f576040517f08c379a000000000000000000000000000000000000000000000000000000000815260040180806020018281038252600c8152602001807f6973206e6f74206f776e6572000000000000000000000000000000000000000081525060200191505060405180910390fd5b6000600454421115610cbf5760026000806101000a81548160ff02191690836002811115610cb957fe5b02179055505b806002811115610ccb57fe5b60008054906101000a900460ff166002811115610ce457fe5b14610d57576040517f08c379a000000000000000000000000000000000000000000000000000000000815260040180806020018281038252601b8152602001807f4e6f742076616c696420696e2063757272656e742073746167652e000000000081525060200191505060405180910390fd5b8360068181548110610d6557fe5b906000526020600020906004020160000160009054906101000a900460ff16610df6576040517f08c379a00000000000000000000000000000000000000000000000000000000081526004018080602001828103825260188152602001807f43616e64696461746520646f6573206e6f74206578697374000000000000000081525060200191505060405180910390fd5b8360068681548110610e0457fe5b90600052602060002090600402016001019080519060200190610e28929190611e60565b508260068681548110610e3757fe5b90600052602060002090600402016002019080519060200190610e5b929190611e60565b505050505050565b600560009054906101000a900473ffffffffffffffffffffffffffffffffffffffff1673ffffffffffffffffffffffffffffffffffffffff163373ffffffffffffffffffffffffffffffffffffffff1614610f26576040517f08c379a000000000000000000000000000000000000000000000000000000000815260040180806020018281038252600c8152602001807f6973206e6f74206f776e6572000000000000000000000000000000000000000081525060200191505060405180910390fd5b6000600454421115610f565760026000806101000a81548160ff02191690836002811115610f5057fe5b02179055505b806002811115610f6257fe5b60008054906101000a900460ff166002811115610f7b57fe5b14610fee576040517f08c379a000000000000000000000000000000000000000000000000000000000815260040180806020018281038252601b8152602001807f4e6f742076616c696420696e2063757272656e742073746167652e000000000081525060200191505060405180910390fd5b8160068181548110610ffc57fe5b906000526020600020906004020160000160009054906101000a900460ff1661108d576040517f08c379a00000000000000000000000000000000000000000000000000000000081526004018080602001828103825260188152602001807f43616e64696461746520646f6573206e6f74206578697374000000000000000081525060200191505060405180910390fd5b6006838154811061109a57fe5b9060005260206000209060040201600080820160006101000a81549060ff02191690556001820160006110cd9190611ee0565b6002820160006110dd9190611ee0565b60038201600090555050505050565b600560009054906101000a900473ffffffffffffffffffffffffffffffffffffffff1673ffffffffffffffffffffffffffffffffffffffff163373ffffffffffffffffffffffffffffffffffffffff16146111af576040517f08c379a000000000000000000000000000000000000000000000000000000000815260040180806020018281038252600c8152602001807f6973206e6f74206f776e6572000000000000000000000000000000000000000081525060200191505060405180910390fd5b60006004544211156111df5760026000806101000a81548160ff021916908360028111156111d957fe5b02179055505b8060028111156111eb57fe5b60008054906101000a900460ff16600281111561120457fe5b14611277576040517f08c379a000000000000000000000000000000000000000000000000000000000815260040180806020018281038252601b8152602001807f4e6f742076616c696420696e2063757272656e742073746167652e000000000081525060200191505060405180910390fd5b60016000806101000a81548160ff0219169083600281111561129557fe5b021790555050565b60076020528060005260406000206000915090508060000160009054906101000a900460ff16908060000160019054906101000a900460ff16908060000160029054906101000a900460ff16908060010154905084565b600560009054906101000a900473ffffffffffffffffffffffffffffffffffffffff1673ffffffffffffffffffffffffffffffffffffffff163373ffffffffffffffffffffffffffffffffffffffff16146113b7576040517f08c379a000000000000000000000000000000000000000000000000000000000815260040180806020018281038252600c8152602001807f6973206e6f74206f776e6572000000000000000000000000000000000000000081525060200191505060405180910390fd5b60006004544211156113e75760026000806101000a81548160ff021916908360028111156113e157fe5b02179055505b8060028111156113f357fe5b60008054906101000a900460ff16600281111561140c57fe5b1461147f576040517f08c379a000000000000000000000000000000000000000000000000000000000815260040180806020018281038252601b8152602001807f4e6f742076616c696420696e2063757272656e742073746167652e000000000081525060200191505060405180910390fd5b611487611f28565b6001816000019015159081151581525050838160200181905250828160400181905250600681908060018154018082558091505060019003906000526020600020906004020160009091909190915060008201518160000160006101000a81548160ff0219169083151502179055506020820151816001019080519060200190611512929190611e60565b50604082015181600201908051906020019061152f929190611e60565b5060608201518160030155505050505050565b60045481565b60006060806000846006818154811061155d57fe5b906000526020600020906004020160000160009054906101000a900460ff166115ee576040517f08c379a00000000000000000000000000000000000000000000000000000000081526004018080602001828103825260188152602001807f43616e64696461746520646f6573206e6f74206578697374000000000000000081525060200191505060405180910390fd5b6002808111156115fa57fe5b60008054906101000a900460ff16600281111561161357fe5b14156117ba57856006878154811061162757fe5b90600052602060002090600402016001016006888154811061164557fe5b90600052602060002090600402016002016006898154811061166357fe5b906000526020600020906004020160030154828054600181600116156101000203166002900480601f01602080910402602001604051908101604052809291908181526020018280546001816001161561010002031660029004801561170a5780601f106116df5761010080835404028352916020019161170a565b820191906000526020600020905b8154815290600101906020018083116116ed57829003601f168201915b50505050509250818054600181600116156101000203166002900480601f0160208091040260200160405190810160405280929190818152602001828054600181600116156101000203166002900480156117a65780601f1061177b576101008083540402835291602001916117a6565b820191906000526020600020905b81548152906001019060200180831161178957829003601f168201915b50505050509150945094509450945061193a565b85600687815481106117c857fe5b9060005260206000209060040201600101600688815481106117e657fe5b90600052602060002090600402016002016000828054600181600116156101000203166002900480601f01602080910402602001604051908101604052809291908181526020018280546001816001161561010002031660029004801561188e5780601f106118635761010080835404028352916020019161188e565b820191906000526020600020905b81548152906001019060200180831161187157829003601f168201915b50505050509250818054600181600116156101000203166002900480601f01602080910402602001604051908101604052809291908181526020018280546001816001161561010002031660029004801561192a5780601f106118ff5761010080835404028352916020019161192a565b820191906000526020600020905b81548152906001019060200180831161190d57829003601f168201915b5050505050915094509450945094505b509193509193565b60025481565b600560149054906101000a900460ff1681565b600160045442111561198b5760026000806101000a81548160ff0219169083600281111561198557fe5b02179055505b80600281111561199757fe5b60008054906101000a900460ff1660028111156119b057fe5b14611a23576040517f08c379a000000000000000000000000000000000000000000000000000000000815260040180806020018281038252601b8152602001807f4e6f742076616c696420696e2063757272656e742073746167652e000000000081525060200191505060405180910390fd5b33600760008273ffffffffffffffffffffffffffffffffffffffff1673ffffffffffffffffffffffffffffffffffffffff16815260200190815260200160002060000160029054906101000a900460ff16158015611acd5750600760008273ffffffffffffffffffffffffffffffffffffffff1673ffffffffffffffffffffffffffffffffffffffff16815260200190815260200160002060000160009054906101000a900460ff165b611b22576040517f08c379a0000000000000000000000000000000000000000000000000000000008152600401808060200182810382526029815260200180611f706029913960400191505060405180910390fd5b6001600760003373ffffffffffffffffffffffffffffffffffffffff1673ffffffffffffffffffffffffffffffffffffffff16815260200190815260200160002060000160016101000a81548160ff0219169083151502179055506003600081548092919060010191905055505050565b60015481565b600560009054906101000a900473ffffffffffffffffffffffffffffffffffffffff1681565b60035481565b60008054906101000a900460ff1681565b6000600680549050905090565b600560009054906101000a900473ffffffffffffffffffffffffffffffffffffffff1673ffffffffffffffffffffffffffffffffffffffff163373ffffffffffffffffffffffffffffffffffffffff1614611ca6576040517f08c379a000000000000000000000000000000000000000000000000000000000815260040180806020018281038252600c8152602001807f6973206e6f74206f776e6572000000000000000000000000000000000000000081525060200191505060405180910390fd5b600760008273ffffffffffffffffffffffffffffffffffffffff1673ffffffffffffffffffffffffffffffffffffffff16815260200190815260200160002060000160009054906101000a900460ff16158015611d505750600760008273ffffffffffffffffffffffffffffffffffffffff1673ffffffffffffffffffffffffffffffffffffffff16815260200190815260200160002060000160029054906101000a900460ff16155b611dc2576040517f08c379a00000000000000000000000000000000000000000000000000000000081526004018080602001828103825260148152602001807f766f74657220616c72656164792065786973747300000000000000000000000081525060200191505060405180910390fd5b6001600760008373ffffffffffffffffffffffffffffffffffffffff1673ffffffffffffffffffffffffffffffffffffffff16815260200190815260200160002060000160006101000a81548160ff02191690831515021790555060026000815480929190600101919050555050565b6040518060800160405280600015158152602001600015158152602001600015158152602001600081525090565b828054600181600116156101000203166002900490600052602060002090601f016020900481019282601f10611ea157805160ff1916838001178555611ecf565b82800160010185558215611ecf579182015b82811115611ece578251825591602001919060010190611eb3565b5b509050611edc9190611f52565b5090565b50805460018160011615610100020316600290046000825580601f10611f065750611f25565b601f016020900490600052602060002090810190611f249190611f52565b5b50565b60405180608001604052806000151581526020016060815260200160608152602001600081525090565b5b80821115611f6b576000816000905550600101611f53565b509056fe766f74657220646f6573206e6f74206578697374206f72206861766520766f746564206265666f7265a2646970667358221220994384b57c8d0691afa0558f0a4461f02657ef49abf076fb5b9eaba47a4733b264736f6c63430007000033566f746520656e642074696d652063616e206e6f7420626520696e207468652070617374a26469706673582212201a23a17e12c55ccbd99e6a40693a82aa156a78bdbcb990da50a43150142ab73364736f6c63430007000033",
  "immutableReferences": {},
  "source": "// SPDX-License-Identifier: UNLICENSED\npragma solidity ^0.7.0;\n\nimport \"./Voting.sol\";\n\n/// @title Factory Contract for creating voting campaigns\n/// @author Youssef Alaa\ncontract VotingFactory {\n    //holds the info of each voting campaign\n    struct Campaign {\n        address contractAddress;\n\t\tstring name;\n    \tuint timestamp;\n\t}\n    address public owner;\n    uint public compaignsNum;\n    mapping(uint => Campaign) indexToCampaign;\n\n    constructor(){\n        owner = msg.sender;\n    }\n\n    modifier isOwner(){\n        require(msg.sender == owner);\n        _;\n    }\n\n    /// @notice Creates a new voting campaign\n    /// @param _name Name of the voting campaign\n    /// @param endTime Date in unix time when the vote will end\n    /// @param _owner Address of the owner of the voting campaign\n    /// @param thresholdVote bool true=threshold vote, false= not a threshold vote\n    function createNewCampaign(string memory _name, uint endTime, address _owner, bool thresholdVote) external isOwner() {\n        Campaign memory newVoteContract;\n\t\tnewVoteContract.contractAddress = address(new Voting(_owner, endTime, thresholdVote));\n        newVoteContract.name = _name;\n        newVoteContract.timestamp= block.timestamp;\n        indexToCampaign[compaignsNum + 1] = newVoteContract;\n        compaignsNum++;\n    }\n\n    /// @notice Get Campaign details by it's Id\n    /// @param id Id of the voting campaign\n    /// @return Campaign's Id\n    /// @return Campaign's contract Address\n    /// @return Campaign's Name\n    /// @return Campaign's creation timestamp\n    function getCampaign(uint id) external view returns(uint, address, string memory, uint) {\n        return (id, indexToCampaign[id].contractAddress, indexToCampaign[id].name, indexToCampaign[id].timestamp);\n    }\n}",
  "sourcePath": "/home/youssef/voting-smartcontracts/contracts/VotingFactory.sol",
  "compiler": {
    "name": "solc",
    "version": "0.7.0+commit.9e61f92b.Emscripten.clang"
  },
  "schemaVersion": "3.2.0",
  "updatedAt": "2020-09-07T11:38:09.735Z",
  "devdoc": {
    "author": "Youssef Alaa",
    "kind": "dev",
    "methods": {
      "createNewCampaign(string,uint256,address,bool)": {
        "params": {
          "_name": "Name of the voting campaign",
          "_owner": "Address of the owner of the voting campaign",
          "endTime": "Date in unix time when the vote will end",
          "thresholdVote": "bool true=threshold vote, false= not a threshold vote"
        }
      },
      "getCampaign(uint256)": {
        "params": {
          "id": "Id of the voting campaign"
        },
        "returns": {
          "_0": "Campaign's Id",
          "_1": "Campaign's contract Address",
          "_2": "Campaign's Name",
          "_3": "Campaign's creation timestamp"
        }
      }
    },
    "title": "Factory Contract for creating voting campaigns",
    "version": 1
  },
  "userdoc": {
    "kind": "user",
    "methods": {
      "createNewCampaign(string,uint256,address,bool)": {
        "notice": "Creates a new voting campaign"
      },
      "getCampaign(uint256)": {
        "notice": "Get Campaign details by it's Id"
      }
    },
    "version": 1
  }
}